:100000000C946A000C9492000C9492000C94920050
:100010000C9492000C9492000C9492000C94920018
:100020000C9492000C94E8180C9492000C9492009A
:100030000C9492000C945C110C9492000C9492001D
:100040000C9492000C9492000C9492000C949200E8
:100050000C9492000C9492000C9492000C949200D8
:100060000C9492000C949200506F6C6F6C7533F787
:1000700000464555504175746F6D0046415F35002F
:1000800046455550003E6733323E3E633332004CA6
:10009000313620636465677265673400203E3E63D5
:1000A0003332203E673332203C63333220523820D3
:1000B0003C6338205238203C6338205238203C635F
:1000C0003800000000000000001F1F1F1F1F1F1F1F
:1000D000A71AA81A11241FBECFEFD8E0DEBFCDBFEC
:1000E00012E0A0E0B1E0E0E0FDE402C005900D9276
:1000F000A839B107D9F716E0A8E9B2E001C01D920E
:10010000AF3DB107E1F710E0C2EDD0E004C02297A7
:10011000FE010E942A22C03DD107C9F70E94F901C1
:100120000C9473260C9400008091BB040895809178
:10013000BC0408958091BD0408958091BE04089583
:100140008091BF0408958091C00408958091C104F6
:1001500008958091C20408958091C3040895809108
:10016000C4040895809153018F5F809353010895D3
:10017000CF93DF93C2ECD0E0CE0160E00E94E812A2
:10018000CE01019661E00E94E812CE01029662E083
:100190000E94E812CE01039663E00E94E812CE01AD
:1001A000049664E00E94E812CE01059665E00E9484
:1001B000E812CE01069666E00E94E8120E946813DB
:1001C000DF91CF910895CF92DF92EF92FF920F933C
:1001D0001F93DF93CF93CDB7DEB72B970FB6F8946D
:1001E000DEBF0FBECDBFE82EF92E20E08E010F5FDF
:1001F0001F4F85E6C82ED12CD801E4E5F1E08AE056
:1002000001900D928150E1F7F701819191917F0169
:10021000B6010E948D21600F711FFB0180812B8729
:100220000E94EB122B852F5F253031F72B960FB6EE
:10023000F894DEBF0FBECDBFCF91DF911F910F911C
:10024000FF90EF90DF90CF900895CF93DF9380EDF4
:1002500097E00E94691A0E94B80088E690E00E9428
:10026000931380E061E00E94561481E790E00E94C1
:10027000931385E890E00E94E11188EE93E00E94DC
:100280005A190E9468138BE790E00E94931380E054
:1002900061E00E94561480E890E00E94931388EE7B
:1002A00093E00E945A190E94660E22E18E3892074E
:1002B000ECF439C00E94660EEC010E946813BE0186
:1002C000882777FD8095982F0E94F31380E091E0B6
:1002D0000E94821380E061E00E94561483E091E066
:1002E0000E94821384E690E00E945A1980E10E94E5
:1002F0008B178823F9F28BE091E00E94821380E152
:100300000E946B1788EE93E00E945A190E946813AE
:1003100084E191E00E94E1110E94C0118823E1F77D
:10032000DF91CF9108958CE990E00E94E1110E9445
:10033000C0118823E1F7DACFCF93DF938FE291E00A
:100340000E948213CCEEDFEF11C088E290E068EDEE
:100350007FEF0E94131781E00E94FA1984E190E078
:100360000E945A192196CC33D10551F0C832D105DB
:1003700060F788ED9FEF68E270E00E941317EBCF03
:1003800080E090E060E070E00E94131719C08BECF1
:1003900096E061E00E940D1AEC010E946813BE0114
:1003A00080E090E00E94F31380E061E00E94561428
:1003B0008BEC96E00E94E30084E690E00E945A19DC
:1003C00080E10E948B17882311F380E10E946B1754
:1003D0000E94681388E391E00E9482138FE890E006
:1003E0000E94E1110E94C0118823E1F7DF91CF91B3
:1003F00008952F923F924F925F926F927F928F92C9
:100400009F92AF92BF92CF92DF92EF92FF920F93A3
:100410001F93DF93CF9300D0CDB7DEB70E942501A5
:1004200010928C0310928B0388E062E00E94F71513
:1004300084E990E09093EC048093EB0487E990E0EA
:100440009093EE048093ED048AE990E09093F00499
:100450008093EF048DE990E09093F2048093F1048F
:1004600080EA90E09093F4048093F30483EA90E0B0
:100470009093F6048093F50486EA90E09093F80454
:100480008093F70489EA90E09093FA048093F9044A
:100490008CEA90E09093FC048093FB048FEA90E058
:1004A0009093FE048093FD040E9494192AE030E0AA
:1004B00040E050E00E94B42189018BEC96E061E0BD
:1004C0000E940D1A9A83898382E00E948B1791E023
:1004D000882309F490E09093BB0480E10E948B177D
:1004E00091E0882309F490E09093BC0480E20E949C
:1004F0008B1791E0882309F490E09093BD040E944B
:1005000094190E943B0A20E030E040E251E40E944E
:10051000AB080E94DD051B016017710709F42FC3AA
:1005200081E080931B0380918B0390918C038091D9
:100530008B0390918C0310928B0410928C04109278
:100540008D0410928E0410928F04109290041092D9
:1005500091041092920410929304109294041092B9
:100560009504109296041092970410929804109299
:10057000990410929A0410929B0410929C04109279
:100580009D0410929E0410929F041092A004109259
:10059000A1041092A2041092A3041092A404109239
:1005A000A5041092A6041092A7041092A804109219
:1005B000A9041092AA041092AB041092AC041092F9
:1005C000AD041092AE041092AF041092B0041092D9
:1005D000B1041092B2041092B3041092B4041092B9
:1005E000B5041092B6041092B7041092B804109299
:1005F000B9041092BA0480918B0390918C0380917E
:100600008B0390918C0380918B0390918C0380914C
:100610008B0390918C0380918B0390918C030097B6
:1006200009F458C280918B0390918C03009719F4C0
:1006300081E080934B0680918B0390918C0300970F
:10064000F9F080914B06882309F443C19091BC04D2
:1006500081E0992309F43DC180934C0680914D06B9
:10066000882309F43EC18091BB04882309F09FC20E
:100670009091BD0481E0992309F433C180934E0623
:1006800080914C06882311F010924B0680914E0603
:10069000882311F010924D0680914C06882339F082
:1006A00081E080934D061092500510924F05809185
:1006B0004E06882339F081E080934B0610924C055A
:1006C00010924B0580911B03882369F080914B06A3
:1006D000882349F080914B0590914C0501969093A9
:1006E0004C0580934B0580911B03882369F0809112
:1006F0004D06882349F080914F0590915005019651
:100700009093500580934F0580911B03882369F0D7
:1007100080915106882349F08091570590915805A2
:100720000196909358058093570580911B03882369
:1007300069F080915206882349F080915905909183
:100740005A05019690935A05809359058091510658
:10075000882309F0DEC029813A816901EE24FF2453
:1007600080915206882339F080918B0390918C03FD
:10077000009709F419C2C701B6010E943B0A9B0108
:10078000AC0160E070E08AEF94E40E9480077B0196
:10079000082FD92E7F2D0E94E90977FD01C28827F5
:1007A00077FD8095982F0E9489092FE832EC45EF5C
:1007B0005CE30E94B1079B01AC0160E070E080E265
:1007C00093E40E948007B62EA72E982E892E6E2DB8
:1007D0007F2D802F9D2D2DEC3CEC4CE45DEB0E9499
:1007E000B1077B01D82EC92EA5019401652F742F66
:1007F000832F922FF6012E2D3F2D4F2F5E2F0E941B
:1008000053070E94E9098B01A5019401652F742FFC
:10081000832F922FF6012E2D3F2D4F2F5E2F0E94FA
:1008200080070E94E9097B010F3F110511F00CF0D0
:100830006DC0FFEF01301F0714F401E01FEF2FEF31
:10084000E216F10411F00CF05DC031E0E3163FEF69
:10085000F30624F491E0E92E9FEFF92E80914D06E6
:10086000882309F448C0C801B7010E94131780917A
:100870008B0390918C0362E370E00E948D210097BE
:1008800009F42BC180918B048F3F09F474C1882334
:1008900009F012C15F98579A80918C048F3F09F438
:1008A00012C1882309F014C15998519A80918B0381
:1008B00090918C03019690938C0380938B0380918D
:1008C0008B0390918C03FFEF8F3F9F0761F08101B5
:1008D000F4CD80E080934C0680914D06882309F08A
:1008E000C2CE80E0CBCE21E030E030938C03209369
:1008F0008B038101E2CD80E090E060E070E00E9437
:100900001317B5CF2FEFE22EF12CA8CF0FEF10E089
:1009100096CF89819A816C01EE24FF24C701B6012C
:100920000E943B0A9B01AC0160E070E08AEF94E416
:100930000E948007062FB72EA82E992E0E94E90943
:1009400077FD37C1882777FD8095982F0E94890908
:100950002FE832EC45EF5CE30E94B1079B01AC014C
:1009600060E070E080E293E40E948007862E772E9C
:10097000682E592E602F7B2D8A2D992D2DEC3CEC65
:100980004CE45DEB0E94B107B62EA72E982E492E9F
:10099000682D772D862D952DD5012B2F3A2F492D9A
:1009A000542D0E9453070E94E9098B01682D772D71
:1009B000862D952DD5012B2F3A2F492D542D0E9490
:1009C00080070E94E9095B010F3F110511F00CF04F
:1009D000E4C09FEF0130190714F401E01FEFAFEFFF
:1009E000AA16B10411F00CF0D4C0B1E0AB16BFEF01
:1009F000BB0624F431E0A32E3FEFB32E80914D06C9
:100A0000882309F4BFC0C801B5010E941317809163
:100A10008B0390918C0362E370E00E948D2100971C
:100A200009F09ECE0E94681300D000D000D0EDB730
:100A3000FEB7319621E431E0ADB7BEB712963C93D4
:100A40002E93119713830283B582A4820E94AC2354
:100A50008DB79EB706960FB6F8949EBF0FBE8DBF9A
:100A600080E061E00E94561490914B0680914D0603
:100A7000ADB7BEB718970FB6F894BEBF0FBEADBFE7
:100A8000EDB7FEB7319629E431E012963C932E93F0
:100A90001197A981BA81B383A28394831582868337
:100AA00017820E94AC23EDB7FEB738960FB6F894C4
:100AB000FEBF0FBEEDBF54CE5F9A579A80918C0453
:100AC0008F3F09F0EECE8BB192E089278BB9EDCE46
:100AD000599AEBCE0E949C01A5CD0E94681300D0CC
:100AE00000D000D0EDB7FEB7319621E431E0ADB7CC
:100AF000BEB712963C932E93119713830283F5820F
:100B0000E4820E94AC238DB79EB706960FB6F89488
:100B10009EBF0FBE8DBF80E061E00E945614909191
:100B20004B0680914D06ADB7BEB718970FB6F89437
:100B3000BEBF0FBEADBFEDB7FEB7319629E431E0C1
:100B400012963C932E931197A981BA81B383A28305
:100B500094831582868317820E94AC23EDB7FEB77B
:100B600038960FB6F894FEBF0FBEEDBF80918B0490
:100B70008F3F09F08CCE8BB180588BB98CCE109200
:100B80001B03D1CC80E090E060E070E00E9413177E
:100B90003ECF4FEFA42EB12C31CF0FEF10E01FCF7F
:100BA000709561957F4FFBCD0E949C01E4CD81E063
:100BB00065CD709561957F4FC5CEEF92FF920F93F3
:100BC0001F937B018C0120E030E040E05FE40E9455
:100BD000590987FD11C0C801B70120E030E040E0AD
:100BE0005FE40E9480070E94E9099B01AC0120504C
:100BF00030404040504806C0C801B7010E94E90992
:100C00009B01AC01B901CA011F910F91FF90EF90B8
:100C10000895A0E0B0E0EFE0F6E00C94F521FC01CF
:100C2000EA018081823008F438C1DB019C91923066
:100C300008F430C1843059F4943009F02EC1918108
:100C400011968C911197981709F021C126C1943003
:100C500009F420C19230B1F4823009F01EC1CA01FA
:100C6000AF0128E0DA010D90AD01DC010D92CD015C
:100C70002150C1F7DB0111968C9111979181892345
:100C800089830AC1823009F405C1C280D380DB01A7
:100C900012966D907C9013972481358146815781FF
:100CA0001496ED90FD900D911C911797C601861931
:100CB00097095C0197FF04C0AA24BB24A81AB90AAB
:100CC000B0E2AB16B1040CF061C0181619066CF551
:100CD000370148010A2C04C096948794779467944E
:100CE0000A94D2F781E090E0A0E0B0E00A2C04C0C2
:100CF000880F991FAA1FBB1F0A94D2F70197A10959
:100D0000B1098E219F21A023B123EE24FF24870166
:100D1000E3940097A105B10519F4EE24FF2487019F
:100D2000E628F728082919293CC00097D1F1CA0CF8
:100D3000DB1C39014A010A2C04C0969487947794ED
:100D400067940A94D2F781E090E0A0E0B0E00A2C2A
:100D500004C0880F991FAA1FBB1F0A94D2F70197DE
:100D6000A109B10982239323A423B52321E030E014
:100D700040E050E00097A105B10519F420E030E013
:100D8000A90126293729482959290BC06C147D044B
:100D900024F4EE24FF24870104C0630120E030E046
:100DA000A9018181FB019181891709F445C088233C
:100DB00049F0D801C701821B930BA40BB50B9C0112
:100DC000AD0104C02E193F09400B510B57FD04C063
:100DD0001982DB82CA820BC081E08983DB82CA82EE
:100DE00050954095309521953F4F4F4F5F4F2C8345
:100DF0003D834E835F830DC0880F991FAA1FBB1FC1
:100E00008C839D83AE83BF838A819B8101979B8363
:100E10008A838C819D81AE81BF819C01AD0121506F
:100E20003040404050402F3FEFEF3E07EFEF4E077E
:100E3000EFE35E0708F30BC08983DB82CA822E0DC5
:100E40003F1D401F511F2C833D834E835F8383E0F2
:100E500088832C813D814E815F8157FF1DC0DA015F
:100E6000C90181709070A070B07056954795379504
:100E70002795822B932BA42BB52B8C839D83AE833C
:100E8000BF838A819B8101969B838A8305C0E9E8A1
:100E9000F1E003C0FB0101C0FE01CF01CDB7DEB719
:100EA000EEE00C941122A0E2B0E0E9E5F7E00C944A
:100EB000FD2169837A838B839C832D833E834F83BB
:100EC000588789E0E82EF12CEC0EFD1ECE0101962C
:100ED000B7010E94DB0B8E010F5E1F4FCE010596FE
:100EE000B8010E94DB0BC701B801AE01475E5F4F3E
:100EF0000E9409060E940D0BA096E6E00C941922B0
:100F0000A0E2B0E0E6E8F7E00C94FD2169837A8383
:100F10008B839C832D833E834F8358878E01075F8D
:100F20001F4FCE010196B8010E94DB0B91E1E92E23
:100F3000F12CEC0EFD1ECE010596B7010E94DB0BD5
:100F40008A8991E089278A8BC801B701AE01475E83
:100F50005F4F0E9409060E940D0BA096E6E00C94DC
:100F60001922A0E2B0E0E7EBF7E00C94F1216983ED
:100F70007A838B839C832D833E834F835887CE0156
:100F80000196BE01675F7F4F0E94DB0BCE01059685
:100F9000BE016F5E7F4F0E94DB0B9985923078F027
:100FA00089898230C0F0943019F4823041F4CBC08A
:100FB000843019F4923079F4C6C0923051F481E053
:100FC0002A859A89291709F480E08A87CE01099633
:100FD000BCC0823051F481E02A859A89291709F42E
:100FE00080E08A8BCE014196B0C06D847E848F8470
:100FF0009888ED88FE880F89188DE0E2F0E080E0A7
:1010000090E0DC01AA24BB24650120E030E0A901C6
:10101000B3016170707061157105D1F02E0D3F1D27
:10102000401F511F15012601280E391E4A1E5B1E46
:1010300081E090E0A0E0B0E02E153F0540075107A9
:1010400018F080E090E0DC01820D931DA41DB51D19
:10105000AA0CBB1CCC1CDD1C17FF09C061E0262EAE
:10106000312C412C512CA228B328C428D5283197E3
:1010700049F0EE0CFF1C001F111F96948794779483
:101080006794C6CF6B897C89EB85FC856E0F7F1FCB
:101090006E5F7F4F7C8F6B8F61E0EA857A89E717FF
:1010A00009F460E06A8F6B8D7C8D10C0FC01E170EB
:1010B000F070309729F056954795379527955068E9
:1010C000B695A795979587956F5F7F4FB7FDEECF44
:1010D0000CC0880F991FAA1FBB1F57FD8160220FEC
:1010E000331F441F551F615070408030E0E09E0761
:1010F000E0E0AE07E0E4BE0760F36B8F7C8F6FE744
:10110000E62EF12C012D112DE822F9220A231B23B2
:1011100060E4E616F1040105110561F487FD0AC0DB
:10112000211531054105510529F0805C9F4FAF4FD6
:10113000BF4F80788D8F9E8FAF8FB8A383E0898F4C
:10114000CE01499602C089E891E00E940D0BA0965D
:10115000E2E10C940D22A8E1B0E0E1EBF8E00C94A0
:10116000F92169837A838B839C832D833E834F830C
:1011700058878E01075F1F4FCE010196B8010E946C
:10118000DB0B81E1E82EF12CEC0EFD1ECE01059665
:10119000B7010E94DB0B9985923008F483C08989DE
:1011A000823008F47BC02A853A8923272A87943025
:1011B00011F0923021F4981709F06CC071C084309E
:1011C00039F41D861E861F86188A1C861B866AC0F7
:1011D000823019F484E0898765C08B859C852B89D2
:1011E0003C89821B930B9C878B872D853E854F8581
:1011F0005889ED88FE880F89188D2E153F05400708
:10120000510738F4220F331F441F551F01979C8745
:101210008B876FE170E0A12CB12CC12CA0E4DA2EF9
:1012200080E090E0DC012E153F054007510740F0BB
:101230008A299B29AC29BD292E193F09400B510B46
:10124000D694C794B794A794220F331F441F551FF9
:101250006150704041F76FE7E62EF12C012D112D02
:10126000E822F9220A231B2360E4E616F1040105B3
:10127000110561F487FD0AC02115310541055105AD
:1012800029F0805C9F4FAF4FBF4F80788D879E873E
:10129000AF87B88B8E01075F1F4F04C0870102C064
:1012A00009E811E0C8010E940D0B6896EAE00C9471
:1012B0001522A8E1B0E0EFE5F9E00C94FD21698387
:1012C0007A838B839C832D833E834F8358878E0143
:1012D000075F1F4FCE010196B8010E94DB0B81E131
:1012E000E82EF12CEC0EFD1ECE010596B7010E94F2
:1012F000DB0B8985823040F08989823028F0C80173
:10130000B7010E94440C01C08FEF6896E6E00C9490
:101310001922A8E0B0E0EFE8F9E00C94FD217B0190
:101320008C0183E08983D801C7018827B7FD8395A5
:101330009927AA27BB27282F8A83E114F1040105E6
:10134000110519F482E0898337C08EE190E09C8317
:101350008B83222389F080E0E81680E0F80680E0A5
:10136000080780E8180769F110950095F094E0945B
:10137000E11CF11C011D111DED82FE820F831887F7
:10138000C801B7010E94B30A9C01215030401216D7
:10139000130694F4022E04C0EE0CFF1C001F111F54
:1013A0000A94D2F7ED82FE820F8318878EE190E0D7
:1013B000821B930B9C838B83CE0101960E940D0BA5
:1013C00004C060E070E080E09FEC2896E6E00C94BA
:1013D0001922ACE0B0E0EFEEF9E00C940122698351
:1013E0007A838B839C83CE010196BE016B5F7F4F16
:1013F0000E94DB0B8D81823081F1823070F184306C
:1014000021F48E81882369F10AC02F81388537FD48
:1014100024C06E812F3131053CF0662311F120E0AC
:1014200030E040E050E821C08EE190E0821B930B59
:1014300029853A854B855C8504C056954795379537
:1014400027958A95D2F7662381F05095409530957F
:1014500021953F4F4F4F5F4F08C020E030E0A9017A
:1014600004C02FEF3FEF4FEF5FE7B901CA012C96A1
:10147000E2E00C941D22A8E0B0E0E1E4FAE00C9474
:10148000FB217B018C011A82611571058105910593
:1014900019F482E089835FC083E089838EE1C82EDE
:1014A000D12CDC82CB82ED82FE820F831887C801AB
:1014B000B7010E94B30AFC013197F7FF3AC0AA278F
:1014C000BB27AE1BBF0B21E030E040E050E00A2E0E
:1014D00004C0220F331F441F551F0A94D2F7215016
:1014E0003040404050402E213F214023512361E0B5
:1014F00070E080E090E0211531054105510519F4B7
:1015000060E070E0CB0104C016950795F794E7946E
:10151000AA95D2F7E62AF72A082B192BED82FE822C
:101520000F8318878EE190E08E1B9F0B9C838B832B
:1015300012C0309781F00E2E04C0EE0CFF1C001F6D
:10154000111F0A94D2F7ED82FE820F831887CE1AFC
:10155000DF0ADC82CB82CE0101960E940D0B289619
:10156000E8E00C941722AF92BF92CF92DF92EF92F5
:10157000FF920F931F937B018C0180E0E81680E0BF
:10158000F80681E0080780E0180758F4EFEFEE1640
:10159000F1040105110509F090F480E090E0DC0110
:1015A00017C0F0E0EF16F0E0FF06F0E00F07F1E003
:1015B0001F0750F480E190E0A0E0B0E009C088E0AF
:1015C00090E0A0E0B0E004C088E190E0A0E0B0E0EE
:1015D00020E230E040E050E0281B390B4A0B5B0B67
:1015E0005701680104C0D694C794B794A7948A950C
:1015F000D2F7D601C5018F569E4FFC018081281B72
:10160000310941095109C9011F910F91FF90EF90D4
:10161000DF90CF90BF90AF900895EF92FF920F931D
:101620001F93CF93DF93FC0124813581468157813D
:1016300061818081823020F44061EFEFF0E0A3C04F
:10164000843009F49BC0823009F492C02115310521
:101650004105510509F48FC00280F381E02D8FEF21
:10166000E238F8070CF05AC0C2E8DFEFCE1BDF0B00
:10167000CA31D1056CF579018A010C2E04C016958A
:101680000795F794E7940A94D2F781E090E0A0E000
:10169000B0E00C2E04C0880F991FAA1FBB1F0A942C
:1016A000D2F70197A109B10982239323A423B5237B
:1016B00021E030E040E050E00097A105B10519F4C9
:1016C00020E030E0A9012E293F29402B512B03C0F7
:1016D00020E030E0A901DA01C9018F779070A07095
:1016E000B07080349105A105B10539F427FF09C018
:1016F000205C3F4F4F4F5F4F04C0215C3F4F4F4F27
:101700005F4FE1E0F0E0203080E0380780E04807FC
:1017100080E4580728F5E0E0F0E022C0E038F10569
:101720006CF5E158FF4FDA01C9018F779070A07016
:10173000B07080349105A105B10539F427FF09C0C7
:10174000205C3F4F4F4F5F4F04C0215C3F4F4F4FD6
:101750005F4F57FF05C056954795379527953196AA
:1017600087E056954795379527958A95D1F70BC011
:10177000E0E0F0E005C0E0E0F0E005C0EFEFF0E011
:1017800020E030E0A9018E2F879588278795942F38
:101790009F77679566276795E695E22EA92FA82B78
:1017A000FE2FF62B622F732F8A2F9F2FCDB7DEB718
:1017B000E6E00C941922DC01FB012C9111963C917E
:1017C000119712968C911297482F4F7750E0982FCF
:1017D000991F9927991F13966C911397862F880F3D
:1017E000892B90E0661F6627661F6183009739F595
:1017F000211531054105510511F482E029C082E827
:101800009FEF9383828367E0220F331F441F551F8E
:101810006A95D1F783E0808309C0220F331F441FEC
:10182000551F82819381019793838283203080E0CA
:10183000380780E0480780E4580778F320C08F3FDE
:10184000910579F4211531054105510519F484E01C
:101850008083089544FF03C081E0808310C010821C
:101860000EC08F5790409383828383E0808387E00C
:10187000220F331F441F551F8A95D1F750642483CC
:101880003583468357830895FC01DB0190819230B4
:1018900008F449C08C91823008F445C0943051F46A
:1018A00061818430B1F511962C91119730E0261B9F
:1018B000310941C0843021F0923041F48230B1F1DD
:1018C00011968C9111978823A1F12DC061818230EE
:1018D00001F111968C9111976817D9F42281338107
:1018E00012968D919C9113978217930794F0281765
:1018F0003907BCF0248135814681578114968D913A
:101900009D910D90BC91A02D82179307A407B50758
:1019100018F4662341F00DC0281739074A075B0702
:1019200028F4662331F021E030E005C020E030E00B
:1019300002C02FEF3FEFC9010895882321F4809161
:101940007C008F7D03C080917C00806280937C004E
:10195000089580917C0090E025E0959587952A95E3
:10196000E1F78170089580917A0090E036E09595D6
:1019700087953A95E1F78170089590935F01809380
:101980005E01089508950E94A90C882321F02091FA
:10199000790030E004C02091780030917900C901CD
:1019A00008950E94C30C08958032B0F497E8909394
:1019B0007A0090917C00292F2064662311F0906CAE
:1019C00002C0922F9F77907E982B90937C008091FD
:1019D0007A00806480937A00089560E00E94D40CBD
:1019E000089560E00E94D40C0E94B30C8823E1F7B4
:1019F0000E94C30C08950E94F10C0895A0E0B0E08D
:101A0000E4E0FDE00C94FB216B0160E00E94D40C4B
:101A10000E94B30C8823E1F7E601EE24FF2487013E
:101A200080917A00806480937A000E94B30C8823AE
:101A3000E1F70E94C30CA0E0B0E0E80EF91E0A1F17
:101A40001B1F219769F7C6019695879520E4C2165A
:101A5000D10440F48E0D9F1D6C2D70E00E948D21ED
:101A6000CB010DC0BC0180E090E06E0D7F1D801F9A
:101A7000911F960140E050E00E94B421C901CDB70A
:101A8000DEB7E8E00C94172287E064E170E00E9482
:101A9000FE0C08950E94440D08950E94FE0C0895C6
:101AA00090935F0180935E0108951F93CF93DF931E
:101AB0000E94A90C182F80E00E949D0C8EE164E129
:101AC00070E00E94FE0C8EE164E170E00E94FE0C6A
:101AD000EC01812F0E949D0CBE017695679580E0F8
:101AE00090E06C54744D8E4E9F4F9E0140E050E04C
:101AF0000E94B421C901DF91CF911F9108950E94E6
:101B0000550D0895A3E0B0E0E8E8FDE00C94002254
:101B1000BC0180E090E020915E0130915F0140E0E7
:101B200050E00E946221182F69837A839B830E9470
:101B3000A90C69817A819B81882371F09B01412FD7
:101B4000592FCA01B90161587F4F8F4F9F4F2FEF17
:101B500030E040E050E00DC09B01412F592FCA01F9
:101B6000B90161507E4F8F4F9F4F2FEF33E040E020
:101B700050E00E94B421C9012396E3E00C941C229A
:101B80000E94FE0C0E94820D08950E94C00D0895CF
:101B90000E94A90C882331F08091790090E00E9486
:101BA000820D089580917800909179000E94820DB5
:101BB000089560E00E94D40C0E94B30C8823E1F7E2
:101BC0000E94C80D08950E94D90D08950E94C80D65
:101BD00008950E94440D0E94820D08950E94E90D0F
:101BE00008950E94820D08951F93CF93DF930E9462
:101BF000A90C182F80E00E949D0C86E064E170E043
:101C00000E94C00DEC01812F0E949D0CCE01880F17
:101C1000991F8C0F9D1F880F991F880F991F8A5736
:101C200092406DE070E00E94A121CB01DF91CF9145
:101C30001F9108950E94F40D08951F93CF93DF9391
:101C40000E94A90C182F80E00E949D0C86E064E1A0
:101C500070E00E94C00DEC01812F0E949D0C24E1D8
:101C600030E0C29FC001C39F900DD29F900D112400
:101C70008E529F4167E270E00E94A121CB01DF916B
:101C8000CF911F9108950E941D0E08951F93CF9329
:101C9000DF930E94A90C182F80E00E949D0C86E023
:101CA0006AE070E00E94C00DEC01812F0E949D0C43
:101CB0009E01220F331F2C0F3D1F2F5F3F4F369584
:101CC0002795C901DF91CF911F9108950E94460E7B
:101CD00008951F93CF93DF930E94A90C182F80E0E3
:101CE0000E949D0C86E06AE070E00E94C00DEC014D
:101CF000812F0E949D0C9E01220F331F2C0F3D1F30
:101D0000C901DF91CF911F9108950E94690E089536
:101D10000E94690E089590919D02E0919902F091C0
:101D20009A02992311F0849101C08081282F2154B7
:101D30002A3110F4805E0895803271F42091990266
:101D400030919A02A9014F5F5F4F50939A024093DE
:101D500099022115310509F70895EF92FF92CF936B
:101D6000DF930E948B0EC0E0D0E01BC09E01220FCB
:101D7000331F93E0CC0FDD1F9A95E1F7C20FD31FFD
:101D8000992787FD9095C80FD91FE09780919902F8
:101D900090919A02019690939A02809399020E94E0
:101DA0008B0E982F90539A3008F3CE01DF91CF918C
:101DB000FF90EF900895089510926F0083E2809352
:101DC000800081E1809381001092820080E197E29F
:101DD000909389008093880010928B0010928A0063
:101DE000229A7894089580919802882329F481E0BA
:101DF000809398020E94DC0E0895A0E0B0E0E3E03A
:101E0000FFE00C94F7218C015B01E42E0E94F30E9D
:101E10001092600117FF04C01F77AAE0FA2E02C0DB
:101E2000FF24F394C0908100DD2428EFC222DD243A
:101E300088EC3F2D389FC001112480179107D8F4FA
:101E4000E80167E20131160710F0C0E1D7E2BE01F8
:101E50007695679580E090E06058794687469F4F79
:101E60009E0140E050E00E94B421890181E090E0B1
:101E7000C82AD92A2CC098E2F99E902D112480E01E
:101E8000892EE4014E01982EE4018016910608F493
:101E9000E801BE01769567959E0140E050E08F2DE8
:101EA0008A3039F480E090E0605E734481449F4F53
:101EB00006C080E090E060537D4E8C4E9F4F0E94A4
:101EC000B421890152E0852E912CC828D9282F2DC4
:101ED0002A3039F4CE0105966AE070E00E948D2127
:101EE000EB0133E0C83ED30779F0BE0180E090E01B
:101EF000950140E050E00E94622128EE33E040E08E
:101F000050E00E94D62101C0950110926F00C0924E
:101F100081001093890000938800409188005091BF
:101F200089006E2D603108F06FE080E190E0861B43
:101F30009109BA0102C0769567958A95E2F7709388
:101F40008B0060938A003093A00220939F0286B397
:101F50008FEF86BB81E080936F00CDB7DEB7ECE0FA
:101F60000C9413220E94FD0E08959B018F3F11F0E7
:101F7000442329F488EE93E0B90140E049C081315F
:101F800030F0582F5051503618F05FE501C050E046
:101F9000852F6CE00E948121A82FB0E0E4EFFFEFD5
:101FA000AE9FB001AF9F700DBE9F700D1124650FE5
:101FB000711D6C30710540F4FB01EE0FFF1FE659F7
:101FC000FE4F6081718102C060E070E0873081F077
:101FD000082E02C0660F771F0A94E2F7823028F0BD
:101FE000CB0105966AE070E00CC0605070480BC0F1
:101FF000CB01B6E0880F991FBA95E1F7029665E02C
:1020000070E00E948D21403108F04FE0CB01B90112
:102010000E94FD0E0895A0E0B0E0E1E1F0E10C9433
:10202000F621B090610180919B02882361F060915C
:102030009C02662341F08FEF70E040E00E94B50FF4
:1020400010929C0234C1C0ECDDE5AA24A39414E0F4
:10205000712E00ED17E0B4E0EB2EF12CA4EFCA2EA8
:10206000A1E0DA2EFFE08F2E912C0E948B0E2091A2
:10207000990230919A022F5F3F4F30939A0220933A
:1020800099028636F1F18736CCF4823609F4AFC076
:1020900083367CF48E3349F18F333CF4813209F47A
:1020A00087C08C3309F09BC022C0813609F097C0ED
:1020B0009BC0843601F185360CF51BC08F3609F4C0
:1020C00047C0803744F48C3611F18D3661F1873684
:1020D00009F085C019C0843709F444C0863709F473
:1020E00060C0823709F07BC039C0B394BECFBA94C8
:1020F000BCCFEE2435C0EE2482E07BC0EE2484E029
:1021000078C0EE2485E075C0EE2487E072C00E949E
:10211000AD0EBC01909363018093620180916401D4
:102120009091650137C00E948B0E8C3619F4109285
:102130009B0204C0A0929B0210929C028091990283
:1021400090919A02019690939A02809399028DCF72
:102150000E94AD0EB82E8093610187CFEE24E394E8
:1021600080E047C00E94AD0EBC01CE010E948D21CF
:10217000CB01880F991F53E0660F771F5A95E1F73F
:10218000860F971F909365018093640160916201AF
:10219000709163010E948D217093670160936601C5
:1021A00064CF0E94AD0E90936901809368015DCF6A
:1021B000709261011093650100936401F0926301D4
:1021C000E0926201D0926701C0926601909269012B
:1021D0008092680110929B0244E0B42E46CF109288
:1021E0009A021092990263C0EE2489E002C0EE24A4
:1021F0008BE09CE0B99EB02C1124B80E0E948B0E8F
:102200008B3211F08332B9F48091990290919A0245
:10221000019690939A0280939902B394EFCF8091A4
:10222000990290919A02019690939A028093990252
:10223000BA940E948B0E8D3291F3C0916601D091B9
:1022400067018153883058F4C0916401D0916501D1
:102250000E94AD0EBC01CE010E948D21EB018E01CA
:102260000BC08091990290919A02019690939A02E4
:1022700080939902C00FD11F169507950E948B0E6F
:102280008E3279F380919B02882339F0CE019695A6
:10229000879580939C02C81BD109EE2011F0BB24C6
:1022A000BA948B2DBE01409168010E94B50FCDB745
:1022B000DEB7EDE00C9412221F920F920FB60F9230
:1022C00011242F933F934F935F936F937F938F933B
:1022D0009F93AF93BF93EF93FF9380919F02909151
:1022E000A0029C01215030403093A00220939F0215
:1022F000009711F510926F00789480918100887F8B
:1023000081608093810080E197E2909389008093BF
:10231000880010928B0010928A0081E08093600107
:102320008091990290919A02009731F080919E02DB
:10233000882311F40E940B10FF91EF91BF91AF9190
:102340009F918F917F916F915F914F913F912F91CD
:102350000F900FBE0F901F9018950E94B50F089513
:1023600080916001882351F081E0209199023091A1
:102370009A022115310519F480E0089581E008954D
:102380000E94B011089510926F0090939A0280936A
:10239000990210929D0210929C020E940B100895C7
:1023A0000E94C311089510926F0090939A02809337
:1023B000990281E080939D0210929C020E940B1072
:1023C00008950E94D311089510926F00E1E8F0E0A3
:1023D0008081887F8160808380E197E2909389008B
:1023E0008093880010928B0010928A0081E0809385
:1023F000600110929A021092990208950E94E411CD
:10240000089580916001882341F080919902909114
:102410009A02009711F00E940B1081E0209199021E
:1024200030919A022115310509F480E008958093D6
:102430009E02882311F40E94011208950E9417122F
:1024400008950E940112089580E090E0089581E0CF
:1024500090E06F9364E06A95F1F76F910197C9F787
:10246000089508950F931F93CF93DF931AB1579850
:102470005A98289AC0E0D0E00E9427125C9A0E94E5
:10248000271209B15C980E9427125C9A0E942712B9
:102490005C9807FF11C024969E0140E050E08091B7
:1024A000A5029091A602A091A702B091A8022817B8
:1024B00039074A075B0700F31AB9DF91CF911F91E3
:1024C0000F91089565B190E0AC0141705070440FD8
:1024D000551F9C012670307053E0220F331F5A9510
:1024E000E1F7242B6D7C262B25B92BB188709070D9
:1024F00034E0880F991F3A95E1F72F77282B2BB9F5
:102500005C9A0E9427125C980E9427120895A2E00C
:10251000B0E0EDE8F2E10C94FC21182F4A836983C6
:102520000E9432130E943212F4B005B1DAB0EBB05F
:10253000289869814A81662311F05A9A01C05A98F5
:1025400084B1826384B9579A413029F0812F8295F2
:102550008F700E946212812F8F700E946212DAB80F
:10256000EBB8F4B805B92296E7E00C94182260E0C5
:1025700042E00E948712089561E042E00E948712C3
:102580000895EF92FF921F93DF93CF930F92CDB7F1
:10259000DEB7660F660F660F482F592F7A0110E0DD
:1025A000812F860F806469830E94B712F70184919E
:1025B0000E94BC121F5F0894E11CF11C6981183055
:1025C00079F70F90CF91DF911F91FF90EF900895D1
:1025D0000E94C11208950E94BC12089560E041E07B
:1025E0000E948712089580E197E2A0E0B0E0809316
:1025F000A5029093A602A093A702B093A802529AB4
:10260000209A549A8EE190E00E945A1983E00E9429
:10261000EE1286E090E00E945A1983E00E94EE12CA
:1026200082E090E00E945A1983E00E94EE1282E05C
:1026300090E00E945A1982E00E94EE1282E090E03F
:102640000E945A1988E20E94B71288E00E94B712CD
:1026500081E00E94B71286E00E94B7128CE00E94CF
:10266000B71208958091A902882329F481E080930C
:10267000A9020E94F312089581E00E94B71280918E
:10268000A1029091A202009711F1A0E0B0E208C06F
:10269000E091A102F091A202E20FF31FB083AF5FBD
:1026A0002A2F30E08091820190E0019760918301B0
:1026B00070E0869FA001879F500D969F500D1124BA
:1026C000241735072CF31092A4021092A302089548
:1026D0000E943C1308950E94BC120895EF92FF924D
:1026E000CF93DF93E82EE7017E01F92EE70102C0C8
:1026F0000E94BC1289918823D9F7DF91CF91FF9076
:10270000EF9008950E946E130895CF93DF93EC012C
:1027100003C00E94BC122196FE0184918823C9F750
:10272000DF91CF9108950E94851308950E946E1342
:102730000895AAE0B0E0EFE9F3E10C94F9219B01E0
:10274000AC011AE0EAE0CE2ED12CE12CF12C5E0196
:102750000894A11CB11C022FCA01B901A70196015E
:102760000E94B4211150F501E10FF11D005D922F7F
:10277000990F892F880F880F890F081B0083211557
:1027800031054105510539F708C0F601E10FF11D8A
:1027900080810E94BC121F5F04C06E010894C11C9E
:1027A000D11C1A3090F32A96EAE00C941522EF928D
:1027B000FF920F931F937B018C0197FF0BC0109525
:1027C0000095F094E094E11CF11C011D111D8DE2B7
:1027D0000E94BC12C801B7010E9499131F910F916A
:1027E000FF90EF9008950E94D71308950E949913C7
:1027F00008958A3010F4805D01C0895C0E94BC128B
:1028000008951F93182F82958F700E94F913812FBE
:102810008F700E94F9131F9108951F93182F892F0D
:102820000E940114812F0E9401141F9108950E949B
:102830000D1408950E9401140895FF920F931F93A1
:10284000F82E08E010E8812F8F2111F081E301C0FC
:1028500080E30E94BC12015011F01695F4CF1F9135
:102860000F91FF9008950E941D140895A5E0B0E017
:10287000ECE3F4E10C940022182F80E8898380ECCB
:102880008A8384E98B8384ED8C83FE01E60FF11D3E
:102890008181810F6D830E94B7121093A4026D8114
:1028A0006093A3022596E3E00C941C220E94361448
:1028B0000895A0E0B0E0EFE5F4E10C94FB21D82E00
:1028C0008091A1029091A202009709F4FAC02D2DE7
:1028D0002A3009F443C02830C9F48091A402815001
:1028E0008093A4028F3F51F48091A3028150809382
:1028F000A3028091830181508093A4028091A3025E
:102900008F3F09F0D8C01092A302D3C08D2D0E9432
:10291000BC128091A3028823B9F090E00197409106
:10292000830150E0849F9001859F300D949F300D6E
:1029300011248091A402E091A102F091A202E20F81
:10294000F31FE80FF11DD0828091A4028F5F809366
:10295000A40290918301891709F0B3C04091A302AA
:10296000242F30E08091820190E0019728173907E9
:1029700009F09CC0C0E0D0E041C080E06C2F0E9414
:102980003614CC248E010F5F1F4F33C0EC2CFF2474
:1029900030E0C29FC001C39F900DD29F900D1124C3
:1029A000E091A102F091A202EE0DFF1DE80FF91FC8
:1029B00080810E94BC128091A1029091A20220917C
:1029C000830130E0C29FF001C39FF00DD29FF00D54
:1029D00011248E0D9F1DE80FF91F029FD001039F48
:1029E000B00D129FB00D1124A80FB91F8C918083D8
:1029F000C39420918301C21648F2E80160918201DC
:102A0000862F90E00297C817D9070CF4B6CF623032
:102A1000E0F1625080E00E94361400E010E231C024
:102A2000C02FD0E08091820190E0029750E0849F17
:102A30009001859F300D949F300D1124E091A102EB
:102A4000F091A202EC0FFD1FE20FF31F80810E94A4
:102A5000BC128091820190E002974091830150E086
:102A6000849F9001859F300D949F300D1124E0913B
:102A7000A102F091A202EC0FFD1FE20FF31F1083E1
:102A80000F5F40918301041758F2609182016150F9
:102A900080E00E94361410E004C080E20E94BC1264
:102AA0001F5F809183011817C0F303C04F5F4093ED
:102AB000A3021092A4028091A4026091A3020E943A
:102AC00036142D2D332727FD3095C901CDB7DEB73C
:102AD000E8E00C941722813011F48FE001C08EE001
:102AE0000E94B71208950E946B1508958CE00E9411
:102AF000B71208950E94761508950F931F93182F0B
:102B0000062F08C0112311F480E101C084E10E9466
:102B1000B71201500023B1F71F910F9108950E9441
:102B20007D1508950F931F93CF93DF93182F062FD2
:102B3000EA010BC0112311F488E101C08CE10E946D
:102B4000B712CE010E945A190150002399F7DF9164
:102B5000CF911F910F9108950E9492150895809131
:102B6000A1029091A202009711F00E94C822209128
:102B7000820130E0215030408091830190E0AC012F
:102B8000249FC001259F900D349F900D11240E9419
:102B90002E229093A2028093A102009721F1A0E03F
:102BA000B0E208C0E091A102F091A202E20FF31F8F
:102BB000B083AF5F2A2F30E08091820190E00197CF
:102BC0006091830170E0869FA001879F500D969FC2
:102BD000500D1124241735072CF389E594E164E2A4
:102BE00072E10E94612308950E94AF1508958093B9
:102BF0008301609382010E94AF1508958093830141
:102C0000609382010E94AF150895FC011182108229
:102C100013821282158214821682683068F489E267
:102C200090E0918380838BE290E0938382838AE2B9
:102C300090E09583848311C06E30C0F483E290E00D
:102C40009183808385E290E09383828384E290E0A5
:102C50009583848370E06850704081E090E002C00A
:102C6000880F991F6A95E2F7868308956531B8F455
:102C700086E290E09183808388E290E09383828370
:102C800087E290E09583848370E06E50704081E02D
:102C900090E002C0880F991F6A95E2F78683089535
:102CA000FC01A481B5818681662321F09C91982B3B
:102CB0009C9308959C91809589238C930895FC01A1
:102CC0006F3F31F4A281B3818C91968189270CC02A
:102CD000A281B3818681662321F09C91982B9C93DD
:102CE00008959C91809589238C930895A7E0B0E086
:102CF000ECE7F6E10C94FE21282FF62E8E010F5FF3
:102D00001F4FC801622F0E940516C8016F2D0E9437
:102D10005F16C80161E00E9450162796E5E00C940A
:102D20001A220895E0EBF0E083EF8083808184BD78
:102D3000E1EBF0E082E08083808185BDE4EBF0E0B0
:102D400010828081E3EBF0E08083808188BD88B5CC
:102D500087BD86E060E00E94761685E060E00E9414
:102D600076168BE060E00E94761683E060E00E94B9
:102D7000761608958091AA02882329F481E0809331
:102D8000AA020E9492160895CF93DF93EC010E944D
:102D9000BA16D7FF05C0D095C195DF4F81E001C0BD
:102DA00080E0CF3FD10519F014F0CFEFD0E08823B9
:102DB00019F018BCC7BD02C0C8BD17BCDF91CF91C8
:102DC00008950E94C4160895CF93DF93EC010E94EA
:102DD000BA16D7FF05C0D095C195DF4F81E001C07D
:102DE00080E0CF3FD10519F014F0CFEFD0E0882379
:102DF00029F01092B400C093B30004C0C093B40093
:102E00001092B300DF91CF9108950E94E4160895C7
:102E1000CF93DF93EB010E94C416CE010E94E4160B
:102E2000DF91CF9108950E9408170895089584B105
:102E30008D7C84B985B1826385B985E090E06F931C
:102E400064E06A95F1F76F910197C9F70895809151
:102E5000AB02882329F481E08093AB020E9417170C
:102E600008951F93CF93DF93182F0E942717C12F28
:102E7000D0E023B130E0209530952C233D2321155F
:102E80003105B9F38AE090E00E945A1923B130E08D
:102E9000209530952C233D232115310551F383B125
:102EA00080958123DF91CF911F9108950E94311762
:102EB00008951F93182F0E94271783B18123E9F3E8
:102EC0008AE090E00E945A1983B18123B1F383B163
:102ED00081231F9108950E94591708951F930E94FE
:102EE0003117182F0E945917812F1F9108950E94A2
:102EF0006E170895A1E0B0E0E0E8F7E10C9401223C
:102F000089830E94271793B19095898189232196FF
:102F1000E2E00C941D220E947A170895BF92CF928E
:102F2000DF92EF92FF920F931F93B82EC3B0DC2C69
:102F3000D0940E9494197B018C010E9427178091E4
:102F4000B702813021F1813038F0823009F445C078
:102F5000833009F081C063C02B2D30E04D2D50E04F
:102F600040955095242335232115310509F474C06B
:102F7000CB20C092B202E092B302F092B40200936E
:102F8000B5021093B60281E08093B70265C08091CC
:102F9000B3029091B402A091B502B091B602E81AC2
:102FA000F90A0A0B1B0B8FE0E816F1040105110565
:102FB00008F452C04091B2028D2D90E0809590951A
:102FC000242F30E082239323009731F182E0809315
:102FD000B702C422C092B2023FC04091B2028D2D0E
:102FE000842371F093E09093B7028093B202E09251
:102FF000B302F092B4020093B5021093B6022CC053
:1030000050E08B2D90E02D2D30E0209530958223DF
:1030100093234817590701F11092B7021DC0809100
:10302000B3029091B402A091B502B091B602E81A31
:10303000F90A0A0B1B0B8FE0E816F10401051105D4
:1030400058F08091B2028D2119F01092B70205C09C
:1030500092E09093B70201C080E01F910F91FF9022
:10306000EF90DF90CF90BF9008950E948E17089543
:10307000CF92DF92EF92FF920F931F93C82ED3B09F
:103080000E9494197B018C010E9427178091B10244
:10309000813029F1813038F0823009F447C0833023
:1030A00009F083C065C02C2D30E04D2D50E04095D7
:1030B0005095242335232115310509F476C0D09489
:1030C000DC20D092AC02E092AD02F092AE0200930E
:1030D000AF021093B00281E08093B10266C080918C
:1030E000AD029091AE02A091AF02B091B002E81A89
:1030F000F90A0A0B1B0B8FE0E816F1040105110514
:1031000008F453C04091AC028D2D90E080959095CD
:10311000242F30E082239323009739F182E08093BB
:10312000B102D094D422D092AC023FC04091AC0204
:10313000842F8D2171F093E09093B1028093AC02C3
:10314000E092AD02F092AE020093AF021093B00293
:103150002CC050E08C2D90E02D2D30E02095309546
:10316000822393234817590701F11092B1021DC021
:103170008091AD029091AE02A091AF02B091B002E9
:10318000E81AF90A0A0B1B0B8FE0E816F104010597
:10319000110558F08091AC028D2119F01092B10206
:1031A00005C092E09093B10201C080E01F910F91A1
:1031B000FF90EF90DF90CF9008950E943818089507
:1031C0006F9364E06A95F1F76F910197C9F70895DD
:1031D0002F928F939F932FB68091B9029091BA024C
:1031E00001968093B9029093BA0290E08091BB025D
:1031F000891F8093BB029091C1029C5F9093C10292
:103200008091C00280519742C0F09093C102809398
:10321000C0028091BC029091BD0201968093BC02D5
:103220009093BD0290E08091BE02891F8093BE0200
:103230008091BF02891F8093BF022FBE9F918F9103
:103240002F9018950F931F936F5F7F4F8F4F9F4F56
:10325000660F771F881F991F25E030E040E050E09F
:103260000E94B421B901CA011F910F9108950F93D3
:103270001F936F5F7F4F8F4F9F4F660F771F881F82
:10328000991F25E030E040E050E00E94B421B901F0
:10329000CA011F910F910895CF93DF93EC0105C0F0
:1032A00088EE93E00E94E01821972097C9F7DF91FC
:1032B000CF9108950E944C190895E0E7F0E08081D5
:1032C0008E7F8083A0EBB0E08C9183608C93A1EB28
:1032D000B0E08C91807F8C938C9182608C93B89AB3
:1032E000808181608083789408958091C2028823D0
:1032F00029F481E08093C2020E945D1908950E9422
:103300007519E0E7F0E080818E7F80832091BC0218
:103310003091BD024091BE025091BF028081816018
:103320008083B901CA0108950E947F1908950E94FF
:103330007519809170008E7F809370002091B2008B
:103340008091B8029091B902A091BA02B091BB02EB
:10335000B89904C030E040E050E011C08091B20064
:103360002091B8023091B9024091BA025091BB024B
:1033700020503F4F4F4F5F4F90E0A0E0B0E0282B30
:10338000392B4A2B5B2B80917000816080937000F9
:10339000B901CA0108950E94971908950E947519EC
:1033A000E0E7F0E080818E7F80831092BC02109273
:1033B000BD021092BE021092BF021092C102109282
:1033C000C00280818160808308950E94CE19089593
:1033D0009C01462F83EC92E0B9010E94291E0895BA
:1033E00083EC92E00E94651B089583EC92E00E94BA
:1033F000491B0895682F83EC92E00E940E210895E6
:1034000083EC92E00E94801B08959C01462F83EC80
:1034100092E0B9010E94881E08959C01462F83EC1A
:1034200092E0B90120E00E944C1F08959C01462FB4
:1034300083EC92E0B90121E00E944C1F0895809135
:10344000C3029091C40208958091C5029091C60272
:1034500008958091C7029091C80208958091C90291
:103460009091CA0208950F93DF93CF9300D000D0BC
:103470000F92CDB7DEB79C01962FDE011196E4E8DE
:10348000F1E085E001900D928150E1F7BE016F5FA0
:103490007F4F992329F083EC92E045E00FEF04C0C1
:1034A00083EC92E045E003E10E94C71B83EC92E0CD
:1034B0000E94491B0E94CE190F900F900F900F9001
:1034C0000F90CF91DF910F91089561E00E94331A20
:1034D000089560E00E94331A08959C01462F83EC02
:1034E00092E0B9010E94291E089583EC92E00E94A7
:1034F000651B089583EC92E00E94491B089583ECBC
:1035000092E00E940E21089583EC92E00E94801BBD
:10351000089583EC92E00E94881E089583EC92E067
:103520000E944C1F08958091C3029091C402089597
:103530008091C5029091C60208958091C702909132
:10354000C80208958091C9029091CA020895089511
:1035500083EC92E00E94442108956F9364E06A95A1
:10356000F1F76F910197C9F70895FC01118210825C
:1035700013821282158214821682683068F489E2FE
:1035800090E0918380838BE290E0938382838AE250
:1035900090E09583848311C06E30C0F483E290E0A4
:1035A0009183808385E290E09383828384E290E03C
:1035B0009583848370E06850704081E090E002C0A1
:1035C000880F991F6A95E2F7868308956531B8F4EC
:1035D00086E290E09183808388E290E09383828307
:1035E00087E290E09583848370E06E50704081E0C4
:1035F00090E002C0880F991F6A95E2F786830895CC
:10360000E0910903F0910A03808191810895E0918E
:103610000903F0910A03828193810895E0910903DF
:10362000F0910A03848195810895E0910903F09156
:103630000A03868197810895A7E0B0E0E2E2FBE10A
:103640000C94FF218C01FC011182108213821282E2
:103650001582148217821682613118F080E180870A
:1036600002C0FC016087F801208BCE010196642F17
:103670000E9405168F81F80181878B819C81938739
:1036800082878D819E81958784872796E4E00C94BC
:103690001B22FC01A485B585109779F08C9191854A
:1036A000892B8C93A285B3859C91818580958923F4
:1036B0008C9388EC90E00E94AD1A089580910903E4
:1036C00090910A030E94491B0895FC01A485B585C9
:1036D000109771F08C919185892B8C93A285B3857D
:1036E0008C919185892B8C9388EC90E00E94AD1A87
:1036F00008958091090390910A030E94651B089523
:10370000FC0120E039C080819181009759F0A22FFF
:10371000B0E0AA0FBB1FA80FB91F86859785119629
:103720009C938E9384819581009759F0A22FB0E0ED
:10373000AA0FBB1FA80FB91F8685978511969C936A
:103740008E9382819381009749F0A22FB0E0AA0F57
:10375000BB1FA80FB91F11961C921E9286819781DC
:10376000009749F0A22FB0E0AA0FBB1FA80FB91F06
:1037700011961C921E922F5F8085281720F20895C3
:103780008091090390910A030E94801B0895A7E08D
:10379000B0E0EDECFBE10C94F1217C011B01642F06
:1037A0003901402F20E00E941C1B97012F5B3F4FE7
:1037B000F9011082D701AE5BBF4F1C92C7018D5B30
:1037C0009F4FFC011082F7017786668666242E01E2
:1037D0000894411C511C6C015D01490129C0062D52
:1037E00010E0F101E00FF11FC20160810E94051697
:1037F0002F81F701E00FF11F218B89819A81F80158
:10380000EE0FFF1FEE0DFF1D92A381A383329105E2
:1038100011F4F40109C08632910511F4F50104C0D8
:103820008932910521F4F6018081822B8083639493
:10383000F7018085681698F22796E2E10C940D2234
:103840000F930E94C71B0F910895A0E0B0E0EBE238
:10385000FCE10C94F9217C01162F6A01022F84E40B
:1038600090E00E942E22A82EE5015E01B92EE5010E
:10387000209761F0C501B701412F96010E94C71B37
:10388000B0920A03A092090381E001C080E0CDB7A5
:10389000DEB7EAE00C941522A0E0B0E0E2E5FCE13E
:1038A0000C94F621EC015B01FC01EF5BFF4F908073
:1038B000FC01EE5BFF4F8080FC01ED5BFF4F7080F1
:1038C00080E009C0E82FF0E0EE0FFF1FEA0DFB1DBE
:1038D000118210828F5F98858917A0F384B121E44B
:1038E000E22EF12CEC0EFD1ED7019C91892B84B9A0
:1038F00087B18E010E5B1F4FF8019081892B87B92C
:103900008AB193E4C92ED12CCC0EDD1ED6019C9138
:10391000892B8AB985B1F7019081892B85B988B146
:10392000D8019C91892B88B98BB1F6019081892BA4
:103930008BB98AE090E00E94AD1A94B1D7018C91C6
:103940008095892384B997B1F80180818095892376
:1039500087B99AB1D6018C91809589238AB995B19E
:10396000F70180818095892385B998B1D8018C9120
:103970008095892388B99BB1F60180818095892340
:103980008BB9C090B000E090B1008091B00083602E
:103990008093B00082E08093B1000091B20080E09B
:1039A00090E039C02091B200201B820F911D020FC0
:1039B000F3B0F91409F04DC096B0981409F049C05D
:1039C00029B1271509F045C024C0212F30E0A901F5
:1039D000440F551FF501E40FF51F608171816115DA
:1039E000710599F44C0F5D1FDA0191964D915C9130
:1039F0009297DA014C912C0F3D1FD90151962C91D1
:103A00005197422311F4918380831F5F28851217F9
:103A1000E0F2892C9F2C2E853F858217930710F2A8
:103A2000C092B000E092B10020E00FC0E22FF0E0C1
:103A3000EE0FFF1FEA0DFB1D80819181009721F49D
:103A40008E859F85918380832F5F8885281770F3EB
:103A500005C0F3B096B079B010E0D8CFCDB7DEB7DF
:103A6000EDE00C941222A1E0B0E0E9E3FDE10C945A
:103A7000FB216C01162F642FF22E402F21E0798359
:103A80000E941C1BF601F1A212A2D6015196798167
:103A9000E12FF72F7F01F601808590E041968C0D94
:103AA0009D1D21E030E010C0B701F70141917F0179
:103AB0004D93A901FB01008002C0440F551F0A94D9
:103AC000E2F7412BF60142A3F60112A1A817B907AC
:103AD00059F71F7312A38FEF93E09787868721967C
:103AE000E8E00C9417220F930E94331D0F91089564
:103AF000AF92BF92DF92EF92FF920F931F93CF93FB
:103B0000DF937C01D62E142F022F83E290E00E94D7
:103B10002E22A82EE5015E01B92EE501209761F065
:103B2000C501B7014D2D212F0E94331DB0920A030C
:103B3000A092090381E001C080E0DF91CF911F9145
:103B40000F91FF90EF90DF90BF90AF900895EF92AC
:103B5000FF920F931F93CF93DF93FC019B01009182
:103B60007C0010917A00E7B0F8B080917A0086FD71
:103B7000FCCF80E00AC0A82FB0E0AA0FBB1FA20FA5
:103B8000B31F11961C921E928F5F9085891798F330
:103B900097B182A18095892387B998B182A1809538
:103BA000892388B987E880937A0070E029C0DF0113
:103BB000A60FB11D51968C915197806480937C0023
:103BC00080917A00806480937A0080917A0086FDEB
:103BD000FCCFA62FB0E0AA0FBB1FA20FB31F4091CE
:103BE0007800509179008D919C911197840F951FC9
:103BF00011969C938E936F5F80856817C0F27F5FEC
:103C000081A1781710F460E0F7CF40E014C0C42F12
:103C1000D0E0CC0FDD1FC20FD31F61A170E0CB013C
:103C200095958795A881B9818A0F9B1F0E948D2148
:103C3000798368834F5F8085481748F300937C0041
:103C400010937A00F8B8E7B8CDB7DEB7E6E00C9489
:103C50001922A0E2B0E0EFE2FEE10C94FC218C011D
:103C60007B01D42E842F8150823018F4C8010E9429
:103C7000651BD80150968C915097882389F4C80110
:103C8000B7010E944C1CC8010E94491BBD2DB230D7
:103C9000D9F5C801BE016F5F7F4F0E944C1C10C058
:103CA000C801B7010E94A71DC8010E94491BED2D44
:103CB000E23051F5C801BE016F5F7F4F0E94A71D22
:103CC00060E0AE014F5F5F4F1BC0862F90E0880F12
:103CD000991FF701E80FF91F840F951FD8011E9651
:103CE0002D913C911F97DC018D919C911197281B80
:103CF000390B80819181820F931F918380836F5F45
:103D0000F8018085681708F3A096E7E00C94182264
:103D10008F929F92AF92BF92CF92DF92FF920F93BA
:103D20001F93CF93DF93EC01C62E072FF42E423062
:103D300011F0FF2051F48C819D81009709F4A0C0FF
:103D40008E819F81009709F49BC08F2D8150823016
:103D500050F488819981009709F492C08A819B81EF
:103D6000009709F48DC0CE016C2D702F4F2D0E944D
:103D7000291EAC2CB02E00E010E0882499247AC0D3
:103D80008F2D813059F4EA81FB81E00FF11FC08053
:103D9000D180E881F981E00FF11F0DC08C819D81F8
:103DA000FF2061F4EE81FF81E00FF11FC080D18020
:103DB000800F911FFC01408151812BC0800F911F0A
:103DC000FC0180819181E881F981E00FF11F408140
:103DD0005181CE84DF848417950710F4A60104C0B6
:103DE0004C0D5D1D481B590BEE81FF81E00FF11F4B
:103DF00080819181EA81FB81E00FF11F2081318177
:103E0000CE84DF848217930720F0C20ED31EC81A17
:103E1000D90AC41AD50AD1F0F5016081718180E018
:103E200090E09A0140E050E0621B730B840B950B0D
:103E300028EE33E040E050E00E946221960140E02D
:103E400050E00E94D62137FD0AC002C020E030E0D9
:103E5000F3E0293E3F072CF028EE33E002C020E0DB
:103E600030E0F501219331935F010894811C911C8E
:103E70000E5F1F4F888590E0881699060CF480CF5E
:103E8000DF91CF911F910F91FF90DF90CF90BF9066
:103E9000AF909F908F900895A5E0B0E0E2E5FFE13C
:103EA0000C94F1214C01C62EE72E2D830E94881E12
:103EB000D40118964C901897DE2C642D70E080E0A9
:103EC00090E028EE33E040E050E00E9462216983F8
:103ED0007A838B839C83EE24FF24870166247724D6
:103EE000882499245401552436C0F601308121815B
:103EF00042E0242E312CC20CD31CC901492F582F6B
:103F00001A012D81222329F088EE93E0821993096A
:103F10001C0199EC291631042CF4A3E32A16310470
:103F200094F002C055245394B101882777FD809501
:103F3000982FA80197010E946221860E971EA81E45
:103F4000B91E620C731C88EE93E0A0E0B0E0E80EAE
:103F5000F91E0A1F1B1F89819A81AB81BC81E8165B
:103F6000F9060A071B0709F65520F1F455240894B1
:103F70004108510824EF31E0429EC001439E900D5C
:103F8000529E900D112420910703309108032817A9
:103F90003907B4F088EE93E0489E9001499E300DB9
:103FA000589E300D11240EC0930140E050E0C50131
:103FB000B4010E94B421209307033093080302C088
:103FC00020E030E0C9012596E2E10C940D229C012D
:103FD000462F8091090390910A03B90121E00E94C4
:103FE0004C1F08959C01462F8091090390910A036C
:103FF000B90120E00E944C1F08959C01462F80913A
:10400000090390910A03B9010E94881E0895A7E64A
:10401000B0E0EDE0F0E20C94F1218C014B016A017B
:10402000A6962FAFA697DA018D919C9111970097D4
:10403000E9F4F801808590E0880F991F0E942E22F4
:10404000D60111969C938E93009709F4E2C0FC016F
:1040500080E090E003C0119211920196D801189669
:104060002C91189730E082179307ACF3F40180810C
:104070009181009789F0EE24FF245E010894A11C31
:10408000B11CB1E46B2E712C6C0E7D1EA1E24A2E88
:10409000512C4C0E5D1E23C0D80118968C9190E0D7
:1040A000880F991F0E942E22F4019183808300972C
:1040B00009F4AFC0FC0180E090E0D80107C01E9673
:1040C0002D913C911F9721933193019618962C9135
:1040D000189730E08217930794F38D01CCCFC80175
:1040E000B501A6964FADA6970E94291ED801189635
:1040F0008C911897E82FF0E0A596FFAFEEAFA5974B
:104100001301F501A3965FAE4EAEA397930140E075
:1041100050E0A8965FAE4EAEA89737C0E114F10408
:1041200061F0A896AEADBFADA8976D917C91119747
:10413000808191816817790760F480819181A896C8
:10414000AEADBFADA89711969C938E93E114F10488
:1041500049F0D9016D917C911197808191818617E9
:10416000970728F480819181D9018D939C934F5FAB
:104170005F4F2E5F3F4F3296A8968EAD9FADA897AA
:104180000296A8969FAF8EAFA897A596AEADBFAD8D
:10419000A5974A175B0714F20894E11CF11CBAE0DA
:1041A000EB16F10409F09BCF80E090E02CC0F10108
:1041B000419151911F01BC01660F771FD601ED910E
:1041C000FC911197E60FF71F2081318124173507E5
:1041D00010F451834083A396EEADFFADA3974191B8
:1041E0005191A396FFAFEEAFA397D401ED91FC914F
:1041F0001197E60FF71F208131814217530710F402
:10420000518340830196F801208530E0821793079F
:1042100074F2C959DF4FE2E10C940D221F93CF9342
:10422000DF93EC01162F862F8150823058F4AE01B7
:104230004E5F5F4FCE01BE0121E00E940720123089
:1042400019F00CC0662351F4BE016C5F7F4FAE01C4
:104250004A5F5F4FCE0120E00E940720DF91CF919F
:104260001F910895682F8091090390910A030E947D
:104270000E2108959C01462F8091090390910A0315
:10428000B9010E94291E0895CF93DF93EC018A8122
:104290009B81009711F00E94C8228E819F81009718
:1042A00011F00E94C82288819981009711F00E9424
:1042B000C8228C819D81009711F00E94C822DF9155
:1042C000CF910895629FD001739FF001829FE00D0E
:1042D000F11D649FE00DF11D929FF00D839FF00D85
:1042E000749FF00D659FF00D9927729FB00DE11D31
:1042F000F91F639FB00DE11DF91FBD01CF0111240E
:104300000895991B79E004C0991F961708F0961B31
:10431000881F7A95C9F780950895AA1BBB1B51E1A8
:1043200007C0AA1FBB1FA617B70710F0A61BB70B25
:10433000881F991F5A95A9F780959095BC01CD01CA
:10434000089597FB092E07260AD077FD04D0E5DFF4
:1043500006D000201AF4709561957F4F0895F6F706
:10436000909581959F4F0895A1E21A2EAA1BBB1B21
:10437000FD010DC0AA1FBB1FEE1FFF1FA217B30731
:10438000E407F50720F0A21BB30BE40BF50B661F47
:10439000771F881F991F1A9469F76095709580950B
:1043A00090959B01AC01BD01CF01089597FB092EAB
:1043B00005260ED057FD04D0D7DF0AD0001C38F4F4
:1043C00050954095309521953F4F4F4F5F4F089541
:1043D000F6F790958095709561957F4F8F4F9F4F21
:1043E00008952F923F924F925F926F927F928F9299
:1043F0009F92AF92BF92CF92DF92EF92FF920F9374
:104400001F93CF93DF93CDB7DEB7CA1BDB0B0FB67D
:10441000F894DEBF0FBECDBF09942A88398848883A
:104420005F846E847D848C849B84AA84B984C884D0
:10443000DF80EE80FD800C811B81AA81B981CE0FC7
:10444000D11D0FB6F894DEBF0FBECDBFED010895AC
:10445000EE0FFF1F0590F491E02D0994CF93DF93A9
:104460008230910510F482E090E0E091D706F0915F
:10447000D80640E050E020E030E026C06081718145
:1044800068177907E0F06817790781F482819381D2
:104490002115310531F0D90113969C938E93129713
:1044A0002BC09093D8068093D70626C0411551059E
:1044B00019F06417750718F4AB01E901DF019F01DA
:1044C00072816381E72FF62F3097C1F641155105B0
:1044D00001F1481B590B4430510580F412968D911F
:1044E0009C911397209719F09B838A8304C0909323
:1044F000D8068093D706FD01329646C0FD01E40F31
:10450000F51F819391934250504011965C934E93C6
:104510003BC02091D5063091D6062115310541F4D6
:1045200020919302309194023093D6062093D506C1
:1045300020919502309196022115310541F42DB755
:104540003EB74091910250919202241B350BE091AD
:10455000D506F091D606E217F307A0F42E1B3F0B09
:104560002817390778F0AC014E5F5F4F24173507E5
:1045700048F04E0F5F1F5093D6064093D5068193A7
:10458000919302C0E0E0F0E0CF01DF91CF91089578
:10459000CF93DF93009709F491C0FC013297138207
:1045A00012826091D7067091D8066115710581F469
:1045B00020813181280F391F8091D5069091D60630
:1045C0008217930799F5F093D606E093D50676C047
:1045D000DB0180E090E002C0CD01D901AE17BF073A
:1045E00048F412962D913C91139721153105A1F7AE
:1045F000CD0121C0B383A283EF01499159919E015E
:10460000240F351FA217B30779F42D913C91119710
:10461000240F351F2E5F3F4F3183208312962D913B
:104620003C91139733832283009729F4F093D806A3
:10463000E093D70643C0DC011396FC93EE931297E8
:104640004D915D91A40FB51FEA17FB0769F4208116
:104650003181240F351F2E5F3F4FEC0139832883B2
:10466000228133813B832A83E0E0F0E002C0FB013A
:10467000BC01DB0112968D919C9113970097B9F7BD
:104680009B012E5F3F4F8D919C911197820F931F3D
:104690004091D5065091D6064817590779F43097BE
:1046A00029F41092D8061092D70602C01382128203
:1046B000225030403093D6062093D506DF91CF911B
:1046C00008950F931F93CF93DF938C01EB01009715
:1046D00011F42097C9F181E090E06EE070E00E9453
:1046E000A825FC019C01009789F180E8838320972D
:1046F00071F0D387C28781E883838091D906909136
:10470000DA06009721F4F093DA06E093D906011552
:104710001105E1F011870087838182608383809196
:10472000DB069091DC06009789F4F093DC06E093B9
:10473000DB068091DD069091DE06009739F4F09358
:10474000DE06E093DD0602C020E030E0C901DF9123
:10475000CF911F910F910895A0E0B0E0E2EBF3E25A
:104760000C940122FE013596619171918091DB06D6
:104770009091DC06AF010E94C1232096E2E00C94E8
:104780001D22ACE0B0E0E7ECF3E20C94F1216C0107
:104790001B018A01FC0117821682838181FFD1C12E
:1047A0002E010894411C511CF6019381F10193FDE7
:1047B000859193FF81911F01882309F4BEC1853241
:1047C00039F493FD859193FF81911F01853229F47E
:1047D00090E0B6010E94E925E7CFEE24FF2420E017
:1047E0002032B0F48B3269F08C3228F4803251F0F0
:1047F000833271F40BC08D3239F0803349F421607B
:104800002CC02260246029C0286027C0206125C0F8
:1048100027FD2CC0382F30533A3098F426FF08C0BB
:104820008E2D880FE82EEE0CEE0CE80EE30E15C070
:104830008F2D880FF82EFF0CFF0CF80EF30E206260
:104840000CC08E3221F426FD78C1206406C08C365F
:1048500011F4206802C0883649F4F10193FD859176
:1048600093FF81911F01882309F0BACF982F9554A7
:10487000933018F09052933028F40C5F1F4FFFE3F1
:10488000F9830DC0833631F0833771F0833509F039
:1048900060C022C0F801808189830E5F1F4F4201F2
:1048A00071E0A72EB12C16C062E0662E712C600E4E
:1048B000711EF8018080918026FF03C06E2D70E08C
:1048C00002C06FEF7FEFC4012C870E94DE255C01E0
:1048D00083012C852F7717C052E0652E712C600E56
:1048E000711EF8018080918026FF03C06E2D70E05C
:1048F00002C06FEF7FEFC4012C870E94CC255C01C2
:104900002C852068830123FD20C008C080E290E050
:10491000B6012C870E94E925FA942C858F2D90E012
:10492000A816B90698F311C0F40127FD859127FF59
:1049300081914F0190E0B6012C870E94E9252C85DA
:10494000F110FA940894A108B108A114B10461F718
:10495000F1C0843611F0893649F527FF08C0F80107
:1049600060817181828193810C5F1F4F09C0F801C2
:1049700060817181882777FD8095982F0E5F1F4F8A
:104980004FE6B42EB22297FF09C09095809570959E
:1049900061957F4F8F4F9F4FF0E8BF2AA2012AE019
:1049A00030E00E941526782E741845C0853731F402
:1049B0003FEEB32EB2222AE030E025C099EFB92EA7
:1049C000B2228F36C1F0803720F4883509F0B5C0A7
:1049D0000DC0803721F0883709F0AFC002C020E158
:1049E000B22AB4FE0BC084E0B82A08C0B4FE09C0E5
:1049F000E6E0BE2A06C028E030E005C020E130E055
:104A000002C020E132E0B7FE08C0F8016081718188
:104A1000828193810C5F1F4F07C0F8016081718113
:104A200080E090E00E5F1F4FA2010E941526782EB5
:104A30007418FFE7BF22B6FE0BC02EEFB2227E1421
:104A400038F4B4FE07C0B2FC05C08FEEB82202C035
:104A5000A72C01C0AE2C8B2D90E0B4FE0DC0FE0142
:104A6000E70DF11D2081203319F4E9EEBE2209C0C3
:104A7000A394B2FE06C004C086789070009709F037
:104A8000A3948B2C9924B3FC14C0B0FE0FC0AF14B8
:104A900028F4E72CEF0CEA18AF2C08C0E72C06C06E
:104AA00080E290E0B6010E94E925A394AF14C0F320
:104AB00004C0AF1410F4FA1801C0FF2484FE0FC024
:104AC00080E390E0B6010E94E92582FE1FC081FECE
:104AD00003C088E590E010C088E790E00DC0C401F5
:104AE00086789070009791F081FC02C080E201C04E
:104AF0008BE2B7FC8DE290E0B6010E94E92506C08A
:104B000080E390E0B6010E94E925EA947E14C0F3A8
:104B10007A94F201E70DF11D808190E0B6010E94C8
:104B2000E9257720A9F706C080E290E0B6010E944F
:104B3000E925FA94FF20C1F737CEF60126813781A7
:104B400002C02FEF3FEFC9012C96E2E10C940D2239
:104B5000EF92FF920F931F93CF93DF93689F800193
:104B6000699F100D789F100D1124C8010E942E22FC
:104B7000E82EE7017E01F92EE701209731F08E2D16
:104B800060E070E0A8010E94D7257E01CE01CDB77C
:104B9000DEB7E6E00C941922FC01059061507040EC
:104BA0000110D8F7809590958E0F9F1F0895DC0116
:104BB00001C06D9341505040E0F70895FC016150F1
:104BC000704001900110D8F7809590958E0F9F1F2F
:104BD00008950F931F93CF93DF938C01EB018B818B
:104BE00081FF1BC082FF0DC02E813F818C819D8182
:104BF0002817390764F4E881F9810193F983E88380
:104C000006C0E885F985802F0995009731F48E81DB
:104C10009F8101969F838E8302C00FEF1FEFC80113
:104C2000DF91CF911F910F910895FA01AA272830A3
:104C300051F1203181F1E8946F936E7F6E5F7F4F69
:104C40008F4F9F4FAF4FB1E03ED0B4E03CD0670FE5
:104C5000781F891F9A1FA11D680F791F8A1F911D38
:104C6000A11D6A0F711D811D911DA11D20D009F488
:104C700068943F912AE0269F11243019305D3193CA
:104C8000DEF6CF010895462F4770405D4193B3E0B3
:104C90000FD0C9F7F6CF462F4F70405D4A3318F05A
:104CA000495D31FD4052419302D0A9F7EACFB4E00B
:104CB000A6959795879577956795BA95C9F70097C3
:104CC0006105710508959B01AC010A2E0694579564
:104CD000479537952795BA95C9F7620F731F841FBB
:104CE000951FA01D089510E0C2EDD0E004C0FE01A4
:104CF0000E942A222296C43DD107C9F7F894FFCF1B
:104D00006D56005072657373204200456E642049F1
:104D10006E69210043313620523136203E43313610
:104D200020523136203E3E43313620523136004942
:104D30006E692043616C6200456E642043616C6261
:104D40000025336420253364002530346420256435
:104D500025640001200000010203040506FF8813FA
:104D600001040400D007F4010F009C01B501CF013C
:104D7000EA0107022602470269028E02B502DE023C
:104D80000A0302080E0F10111200000000000000BC
:104D900000000102020303030304040404040404E6
:104DA00004050505050505050505050505050505B4
:104DB0000506060606060606060606060606060694
:104DC0000606060606060606060606060606060683
:104DD0000607070707070707070707070707070764
:104DE0000707070707070707070707070707070753
:104DF0000707070707070707070707070707070743
:104E00000707070707070707070707070707070732
:104E10000708080808080808080808080808080813
:104E20000808080808080808080808080808080802
:104E300008080808080808080808080808080808F2
:104E400008080808080808080808080808080808E2
:104E500008080808080808080808080808080808D2
:104E600008080808080808080808080808080808C2
:104E700008080808080808080808080808080808B2
:104E800008080808080808080808080808080808A2
:084E9000082000DF060000000D
:00000001FF
