:100000000C9459000C9481000C9481000C94810094
:100010000C9481000C9481000C9481000C9481005C
:100020000C9481000C9400150C9481000C948100B8
:100030000C9481000C94740D0C9481000C9481003C
:100040000C9481000C9481000C9481000C9481002C
:100050000C9481000C9481000C9481000C9481001C
:100060000C9481000C948100506F6C6F6C7533F7A9
:10007000003564706F46455550004C696E650066EA
:100080006F6C6C6F776572003E6733323E3E633350
:1000900032004C3136206364656772656734000056
:1000A0000000000000001F1F1F1F1F1F1F00BF16A2
:1000B000C01611241FBECFEFD8E0DEBFCDBF12E0C7
:1000C000A0E0B1E0E8EFFFE302C005900D92A43597
:1000D000B107D9F712E0A4E5B2E001C01D92A13D3D
:1000E000B107E1F710E0C0EBD0E004C02297FE01B9
:1000F0000E94421ECE3AD107C9F70E94BC010C945F
:10010000EF1F0C94000080910F018F5F80930F010F
:100110000895CF93DF93CFE9D0E0CE0160E00E9455
:10012000000FCE01019661E00E94000FCE01029601
:1001300062E00E94000FCE01039663E00E94000F70
:10014000CE01049664E00E94000FCE01059665E0A2
:100150000E94000FCE01069666E00E94000F0E94EA
:10016000800FDF91CF910895CF92DF92EF92FF92AF
:100170000F931F93DF93CF93CDB7DEB72B970FB6B7
:10018000F894DEBF0FBECDBFE82EF92E20E08E0121
:100190000F5F1F4F85E6C82ED12CD801E0E1F1E0BA
:1001A0008AE001900D928150E1F7F70181919191E0
:1001B0007F01B6010E94A51D600F711FFB018081A8
:1001C0002B870E94030F2B852F5F253031F72B964D
:1001D0000FB6F894DEBF0FBECDBFCF91DF911F9158
:1001E0000F91FF90EF90DF90CF900895EF92FF92E4
:1001F0000F931F93DF93CF93CDB7DEB72A970FB638
:10020000F894DEBF0FBECDBF80ED97E00E9481164F
:100210000E94890088E690E00E94AB0F80E061E0D8
:100220000E946E1081E790E00E94AB0F88E890E09A
:100230000E94F90D88EE93E00E9472150E94800FD3
:100240008AE790E00E94AB0F80E061E00E946E10B0
:100250008FE790E00E94AB0F88EE93E00E9472154A
:100260001CC00E947E0A8C010E94800FB801882762
:1002700077FD8095982F0E940B1080E091E00E94FE
:100280009A0F80E061E00E946E1083E091E00E948E
:100290009A0F84E690E00E94721580E10E94A313F9
:1002A0008823F9F280E10E94831388EE93E00E9494
:1002B00072150CEE1FEF12C088E290E068ED7FEF40
:1002C0000E942B1381E00E94121684E190E00E94AC
:1002D00072150F5F1F4F0C33110551F008321105D5
:1002E00058F788ED9FEF68E270E00E942B13EACF89
:1002F00080E090E060E070E00E942B138E010F5FC1
:100300001F4F17C0C80161E00E9425167C010E94A2
:10031000800FB70180E090E00E940B1080E061E068
:100320000E946E10C8010E94B40084E690E00E9412
:10033000721580E10E94A313882321F380E10E94BB
:1003400083130E94800F8BE091E00E949A0F82E954
:1003500090E00E94F90D0E94D80D8823E1F72A96BB
:100360000FB6F894DEBF0FBECDBFCF91DF911F91C6
:100370000F91FF90EF9008952F923F924F925F92CE
:100380006F927F929F92AF92BF92CF92DF92EF9245
:10039000FF920F931F93DF93CF93CDB7DEB72E97C6
:1003A0000FB6F894DEBF0FBECDBF0E94F6009924B1
:1003B00051C06E2D7F2D802F912F20E030E042E044
:1003C00053E40E944105181624F4EE24FF2402E0B1
:1003D00013E4A6019501652F7C2D832F9A2D2DEC1A
:1003E0003CEC4CE45DEB0E944704D62EC72EB82EA1
:1003F000A92E6E2D7F2D802F912FD601F5012B2F49
:100400003A2F4F2F5E2F0E94E9030E9401062B0115
:100410003C016E2D7F2D802F912FD601F5012B2FC2
:100420003A2F4F2F5E2F0E9416040E9401069B0157
:10043000AC018B01C201B9010E942B139394892D49
:1004400090E087709070009709F44FC081E090E0D1
:100450000E947215CE01019661E00E9425169C0152
:1004600040E050E02B873C874D875E87CA01B90189
:100470000E9453069B01AC0160E070E08AEF94E4B7
:100480000E941604D62EC72EB82EA92EA6019501BD
:10049000652F742F832F922F0E94010677FD40C095
:1004A000882777FD8095982F0E94A1052AE037EDD7
:1004B00043E25DE30E9447049B01AC0160E070E011
:1004C00082E093E40E9416047B018C017F2D912F22
:1004D00020E030E040EF51E40E94710587FF69CFD2
:1004E000EE24FF2400EF11E474CF0E94800F97FCEC
:1004F0001BC080E060E00E946E10B201882777FD8B
:100500008095982F0E940B1080E064E00E946E108E
:10051000B801882777FD8095982F0E940B1096CF01
:10052000709561957F4FBCCF80E060E00E946E10B7
:100530006B857C858D859E850E940B1087CFA0E002
:10054000B0E0E5EAF2E00C940D1EFC01EA018081C6
:10055000823008F438C1DB019C91923008F430C13C
:10056000843059F4943009F02EC1918111968C9108
:100570001197981709F021C126C1943009F420C1C0
:100580009230B1F4823009F01EC1CA01AF0128E0F7
:10059000DA010D90AD01DC010D92CD012150C1F7C2
:1005A000DB0111968C9111979181892389830AC16E
:1005B000823009F405C1C280D380DB0112966D90B0
:1005C0007C90139724813581468157811496ED9054
:1005D000FD900D911C911797C601861997095C0132
:1005E00097FF04C0AA24BB24A81AB90AB0E2AB162C
:1005F000B1040CF061C0181619066CF537014801FA
:100600000A2C04C096948794779467940A94D2F73E
:1006100081E090E0A0E0B0E00A2C04C0880F991FB0
:10062000AA1FBB1F0A94D2F70197A109B1098E2115
:100630009F21A023B123EE24FF248701E394009798
:10064000A105B10519F4EE24FF248701E628F72857
:10065000082919293CC00097D1F1CA0CDB1C3901CB
:100660004A010A2C04C096948794779467940A945C
:10067000D2F781E090E0A0E0B0E00A2C04C0880F3F
:10068000991FAA1FBB1F0A94D2F70197A109B109AC
:1006900082239323A423B52321E030E040E050E0FF
:1006A0000097A105B10519F420E030E0A901262941
:1006B0003729482959290BC06C147D0424F4EE24F1
:1006C000FF24870104C0630120E030E0A90181819B
:1006D000FB019181891709F445C0882349F0D801AD
:1006E000C701821B930BA40BB50B9C01AD0104C089
:1006F0002E193F09400B510B57FD04C01982DB82B4
:10070000CA820BC081E08983DB82CA825095409502
:10071000309521953F4F4F4F5F4F2C833D834E8344
:100720005F830DC0880F991FAA1FBB1F8C839D83F9
:10073000AE83BF838A819B8101979B838A838C814F
:100740009D81AE81BF819C01AD0121503040404070
:1007500050402F3FEFEF3E07EFEF4E07EFE35E070E
:1007600008F30BC08983DB82CA822E0D3F1D401F18
:10077000511F2C833D834E835F8383E088832C81CC
:100780003D814E815F8157FF1DC0DA01C901817033
:100790009070A070B0705695479537952795822B2D
:1007A000932BA42BB52B8C839D83AE83BF838A812F
:1007B0009B8101969B838A8305C0E5E4F1E003C039
:1007C000FB0101C0FE01CF01CDB7DEB7EEE00C9416
:1007D000291EA0E2B0E0EFEEF3E00C94151E698351
:1007E0007A838B839C832D833E834F83588789E054
:1007F000E82EF12CEC0EFD1ECE010196B7010E94F1
:10080000F3078E010F5E1F4FCE010596B8010E94BF
:10081000F307C701B801AE01475E5F4F0E949F0218
:100820000E942507A096E6E00C94311EA0E2B0E0FD
:10083000ECE1F4E00C94151E69837A838B839C832E
:100840002D833E834F8358878E01075F1F4FCE0154
:100850000196B8010E94F30791E1E92EF12CEC0E0C
:10086000FD1ECE010596B7010E94F3078A8991E02B
:1008700089278A8BC801B701AE01475E5F4F0E948E
:100880009F020E942507A096E6E00C94311EA0E28C
:10089000B0E0EDE4F4E00C94091E69837A838B8365
:1008A0009C832D833E834F835887CE010196BE01E2
:1008B000675F7F4F0E94F307CE010596BE016F5E12
:1008C0007F4F0E94F3079985923078F089898230B2
:1008D000C0F0943019F4823041F4CBC0843019F464
:1008E000923079F4C6C0923051F481E02A859A8919
:1008F000291709F480E08A87CE010996BCC08230AE
:1009000051F481E02A859A89291709F480E08A8BBD
:10091000CE014196B0C06D847E848F849888ED8826
:10092000FE880F89188DE0E2F0E080E090E0DC01C5
:10093000AA24BB24650120E030E0A901B301617065
:10094000707061157105D1F02E0D3F1D401F511FB4
:1009500015012601280E391E4A1E5B1E81E090E01B
:10096000A0E0B0E02E153F054007510718F080E0E9
:1009700090E0DC01820D931DA41DB51DAA0CBB1CCB
:10098000CC1CDD1C17FF09C061E0262E312C412C48
:10099000512CA228B328C428D528319749F0EE0C51
:1009A000FF1C001F111F9694879477946794C6CFFD
:1009B0006B897C89EB85FC856E0F7F1F6E5F7F4F97
:1009C0007C8F6B8F61E0EA857A89E71709F460E034
:1009D0006A8F6B8D7C8D10C0FC01E170F0703097D8
:1009E00029F056954795379527955068B695A79560
:1009F000979587956F5F7F4FB7FDEECF0CC0880F3F
:100A0000991FAA1FBB1F57FD8160220F331F441F70
:100A1000551F615070408030E0E09E07E0E0AE0777
:100A2000E0E4BE0760F36B8F7C8F6FE7E62EF12C5E
:100A3000012D112DE822F9220A231B2360E4E6167A
:100A4000F1040105110561F487FD0AC02115310586
:100A50004105510529F0805C9F4FAF4FBF4F807813
:100A60008D8F9E8FAF8FB8A383E0898FCE0149967B
:100A700002C085E491E00E942507A096E2E10C9473
:100A8000251EA8E1B0E0E7E4F5E00C94151E6983AB
:100A90007A838B839C832D833E834F8358878E017B
:100AA000075F1F4FCE010196B8010E94F30781E155
:100AB000E82EF12CEC0EFD1ECE010596B7010E942A
:100AC000F3078985823040F08989823028F0C80197
:100AD000B7010E945C0801C08FEF6896E6E00C94B5
:100AE000311EA8E1B0E0E7E7F5E00C94151E69833C
:100AF0007A838B839C832D833E834F8358878E011B
:100B0000075F1F4FCE010196B8010E94F30781E1F4
:100B1000E82EF12CEC0EFD1ECE010596B7010E94C9
:100B2000F3078985823040F08989823028F0C80136
:100B3000B7010E945C0801C081E06896E6E00C9471
:100B4000311EA8E0B0E0E7EAF5E00C94151E7B0149
:100B50008C0183E08983D801C7018827B7FD83957D
:100B60009927AA27BB27282F8A83E114F1040105BE
:100B7000110519F482E0898337C08EE190E09C83EF
:100B80008B83222389F080E0E81680E0F80680E07D
:100B9000080780E8180769F110950095F094E09433
:100BA000E11CF11C011D111DED82FE820F831887CF
:100BB000C801B7010E94CB069C012150304012169B
:100BC000130694F4022E04C0EE0CFF1C001F111F2C
:100BD0000A94D2F7ED82FE820F8318878EE190E0AF
:100BE000821B930B9C838B83CE0101960E94250769
:100BF00004C060E070E080E09FEC2896E6E00C9492
:100C0000311EACE0B0E0E7E0F6E00C94191E698319
:100C10007A838B839C83CE010196BE016B5F7F4FED
:100C20000E94F3078D81823081F1823070F184302F
:100C300021F48E81882369F10AC02F81388537FD20
:100C400024C06E812F3131053CF0662311F120E084
:100C500030E040E050E821C08EE190E0821B930B31
:100C600029853A854B855C8504C05695479537950F
:100C700027958A95D2F7662381F050954095309557
:100C800021953F4F4F4F5F4F08C020E030E0A90152
:100C900004C02FEF3FEF4FEF5FE7B901CA012C9679
:100CA000E2E00C94351EA8E0B0E0E9E5F6E00C9433
:100CB000131E7B018C011A82611571058105910556
:100CC00019F482E089835FC083E089838EE1C82EB6
:100CD000D12CDC82CB82ED82FE820F831887C80183
:100CE000B7010E94CB06FC013197F7FF3AC0AA2753
:100CF000BB27AE1BBF0B21E030E040E050E00A2EE6
:100D000004C0220F331F441F551F0A94D2F72150ED
:100D10003040404050402E213F214023512361E08C
:100D200070E080E090E0211531054105510519F48E
:100D300060E070E0CB0104C016950795F794E79446
:100D4000AA95D2F7E62AF72A082B192BED82FE8204
:100D50000F8318878EE190E08E1B9F0B9C838B8303
:100D600012C0309781F00E2E04C0EE0CFF1C001F45
:100D7000111F0A94D2F7ED82FE820F831887CE1AD4
:100D8000DF0ADC82CB82CE0101960E9425072896DD
:100D9000E8E00C942F1EAF92BF92CF92DF92EF92B9
:100DA000FF920F931F937B018C0180E0E81680E097
:100DB000F80681E0080780E0180758F4EFEFEE1618
:100DC000F1040105110509F090F480E090E0DC01E8
:100DD00017C0F0E0EF16F0E0FF06F0E00F07F1E0DB
:100DE0001F0750F480E190E0A0E0B0E009C088E087
:100DF00090E0A0E0B0E004C088E190E0A0E0B0E0C6
:100E000020E230E040E050E0281B390B4A0B5B0B3E
:100E10005701680104C0D694C794B794A7948A95E3
:100E2000D2F7D601C501835B9E4FFC018081281B50
:100E3000310941095109C9011F910F91FF90EF90AC
:100E4000DF90CF90BF90AF900895EF92FF920F93F5
:100E50001F93CF93DF93FC01248135814681578115
:100E600061818081823020F44061EFEFF0E0A3C027
:100E7000843009F49BC0823009F492C021153105F9
:100E80004105510509F48FC00280F381E02D8FEFF9
:100E9000E238F8070CF05AC0C2E8DFEFCE1BDF0BD8
:100EA000CA31D1056CF579018A010C2E04C0169562
:100EB0000795F794E7940A94D2F781E090E0A0E0D8
:100EC000B0E00C2E04C0880F991FAA1FBB1F0A9404
:100ED000D2F70197A109B10982239323A423B52353
:100EE00021E030E040E050E00097A105B10519F4A1
:100EF00020E030E0A9012E293F29402B512B03C0CF
:100F000020E030E0A901DA01C9018F779070A0706C
:100F1000B07080349105A105B10539F427FF09C0EF
:100F2000205C3F4F4F4F5F4F04C0215C3F4F4F4FFE
:100F30005F4FE1E0F0E0203080E0380780E04807D4
:100F400080E4580728F5E0E0F0E022C0E038F10541
:100F50006CF5E158FF4FDA01C9018F779070A070EE
:100F6000B07080349105A105B10539F427FF09C09F
:100F7000205C3F4F4F4F5F4F04C0215C3F4F4F4FAE
:100F80005F4F57FF05C05695479537952795319682
:100F900087E056954795379527958A95D1F70BC0E9
:100FA000E0E0F0E005C0E0E0F0E005C0EFEFF0E0E9
:100FB00020E030E0A9018E2F879588278795942F10
:100FC0009F77679566276795E695E22EA92FA82B50
:100FD000FE2FF62B622F732F8A2F9F2FCDB7DEB7F0
:100FE000E6E00C94311EDC01FB012C9111963C9142
:100FF000119712968C911297482F4F7750E0982FA7
:10100000991F9927991F13966C911397862F880F14
:10101000892B90E0661F6627661F6183009739F56C
:10102000211531054105510511F482E029C082E8FE
:101030009FEF9383828367E0220F331F441F551F66
:101040006A95D1F783E0808309C0220F331F441FC4
:10105000551F82819381019793838283203080E0A2
:10106000380780E0480780E4580778F320C08F3FB6
:10107000910579F4211531054105510519F484E0F4
:101080008083089544FF03C081E0808310C01082F4
:101090000EC08F5790409383828383E0808387E0E4
:1010A000220F331F441F551F8A95D1F750642483A4
:1010B0003583468357830895FC01DB01908192308C
:1010C00008F449C08C91823008F445C0943051F442
:1010D00061818430B1F511962C91119730E0261B77
:1010E000310941C0843021F0923041F48230B1F1B5
:1010F00011968C9111978823A1F12DC061818230C6
:1011000001F111968C9111976817D9F422813381DE
:1011100012968D919C9113978217930794F028173C
:101120003907BCF0248135814681578114968D9111
:101130009D910D90BC91A02D82179307A407B50730
:1011400018F4662341F00DC0281739074A075B07DA
:1011500028F4662331F021E030E005C020E030E0E3
:1011600002C02FEF3FEFC9010895882321F4809139
:101170007C008F7D03C080917C00806280937C0026
:10118000089580917C0090E025E0959587952A95BB
:10119000E1F78170089580917A0090E036E09595AE
:1011A00087953A95E1F78170089590931B0180939C
:1011B0001A01089508950E94C108882321F0209102
:1011C000790030E004C02091780030917900C901A5
:1011D00008950E94DB0808958032B0F497E8909358
:1011E0007A0090917C00292F2064662311F0906C86
:1011F00002C0922F9F77907E982B90937C008091D5
:101200007A00806480937A00089560E00E94EC0880
:10121000089560E00E94EC080E94CB088823E1F763
:101220000E94DB0808950E9409090895A0E0B0E03B
:10123000ECE1F9E00C94131E6B0160E00E94EC08F5
:101240000E94CB088823E1F7E601EE24FF24870102
:1012500080917A00806480937A000E94CB08882372
:10126000E1F70E94DB08A0E0B0E0E80EF91E0A1FDB
:101270001B1F219769F7C6019695879520E4C21632
:10128000D10440F48E0D9F1D6C2D70E00E94A51DB1
:10129000CB010DC0BC0180E090E06E0D7F1D801F72
:1012A000911F960140E050E00E94CC1DC901CDB7CE
:1012B000DEB7E8E00C942F1E87E064E170E00E9446
:1012C000160908950E945C0908950E941609089560
:1012D00090931B0180931A0108951F93CF93DF937E
:1012E0000E94C108182F80E00E94B5088EE164E1D9
:1012F00070E00E9416098EE164E170E00E94160918
:10130000EC01812F0E94B508BE017695679580E0BB
:1013100090E06C54744D8E4E9F4F9E0140E050E023
:101320000E94CC1DC901DF91CF911F9108950E94A9
:101330006D090895A3E0B0E0E0EAF9E00C94181E0E
:10134000BC0180E090E020911A0130911B0140E047
:1013500050E00E947A1D182F69837A839B830E9434
:10136000C10869817A819B81882371F09B01412F9B
:10137000592FCA01B90161587F4F8F4F9F4F2FEFEF
:1013800030E040E050E00DC09B01412F592FCA01D1
:10139000B90161507E4F8F4F9F4F2FEF33E040E0F8
:1013A00050E00E94CC1DC9012396E3E00C94341E4A
:1013B0000E9416090E949A0908950E94D80908956A
:1013C0000E94C108882331F08091790090E00E944A
:1013D0009A09089580917800909179000E949A0965
:1013E000089560E00E94EC080E94CB088823E1F792
:1013F0000E94E00908950E94F10908950E94E00901
:1014000008950E945C090E949A0908950E94010AA9
:1014100008950E949A0908951F93CF93DF930E9425
:10142000C108182F80E00E94B50886E064E170E0F2
:101430000E94D809EC01812F0E94B508CE01880FC7
:10144000991F8C0F9D1F880F991F880F991F8A570E
:1014500092406DE070E00E94B91DCB01DF91CF9109
:101460001F9108950E940C0A08951F93CF93DF9354
:101470000E94C108182F80E00E94B50886E064E150
:1014800070E00E94D809EC01812F0E94B50824E188
:1014900030E0C29FC001C39F900DD29F900D1124D8
:1014A0008E529F4167E270E00E94B91DCB01DF912F
:1014B000CF911F9108950E94350A08951F93CF93ED
:1014C000DF930E94C108182F80E00E94B50886E0D3
:1014D0006AE070E00E94D809EC01812F0E94B508F3
:1014E0009E01220F331F2C0F3D1F2F5F3F4F36955C
:1014F0002795C901DF91CF911F9108950E945E0A3F
:1015000008951F93CF93DF930E94C108182F80E0A6
:101510000E94B50886E06AE070E00E94D809EC01FC
:10152000812F0E94B5089E01220F331F2C0F3D1FF3
:10153000C901DF91CF911F9108950E94810A0895FA
:101540000E94810A089590915902E0915502F0910C
:101550005602992311F0849101C08081282F2154D3
:101560002A3110F4805E0895803271F42091550282
:1015700030915602A9014F5F5F4F5093560240933E
:1015800055022115310509F70895EF92FF92CF9387
:10159000DF930E94A30AC0E0D0E01BC09E01220F8F
:1015A000331F93E0CC0FDD1F9A95E1F7C20FD31FD5
:1015B000992787FD9095C80FD91FE0978091550214
:1015C00090915602019690935602809355020E9484
:1015D000A30A982F90539A3008F3CE01DF91CF9150
:1015E000FF90EF900895089510926F0083E280932A
:1015F000800081E1809381001092820080E197E277
:10160000909389008093880010928B0010928A003A
:10161000229A7894089580915402882329F481E0D5
:10162000809354020E94F40A0895A0E0B0E0EBE138
:10163000FBE00C940F1E8C015B01E42E0E940B0B4F
:1016400010921C0117FF04C01F77AAE0FA2E02C0F7
:10165000FF24F394C0908100DD2428EFC222DD2412
:1016600088EC3F2D389FC001112480179107D8F4D2
:10167000E80167E20131160710F0C0E1D7E2BE01D0
:101680007695679580E090E06058794687469F4F51
:101690009E0140E050E00E94CC1D890181E090E075
:1016A000C82AD92A2CC098E2F99E902D112480E0F6
:1016B000892EE4014E01982EE4018016910608F46B
:1016C000E801BE01769567959E0140E050E08F2DC0
:1016D0008A3039F480E090E0605E734481449F4F2B
:1016E00006C080E090E060537D4E8C4E9F4F0E947C
:1016F000CC1D890152E0852E912CC828D9282F2D88
:101700002A3039F4CE0105966AE070E00E94A51DEA
:10171000EB0133E0C83ED30779F0BE0180E090E0F2
:10172000950140E050E00E947A1D28EE33E040E051
:1017300050E00E94EE1D01C0950110926F00C09212
:101740008100109389000093880040918800509197
:1017500089006E2D603108F06FE080E190E0861B1B
:101760009109BA0102C0769567958A95E2F7709360
:101770008B0060938A0030935C0220935B0286B3F7
:101780008FEF86BB81E080936F00CDB7DEB7ECE0D2
:101790000C942B1E0E94150B08959B018F3F11F096
:1017A000442329F488EE93E0B90140E049C0813137
:1017B00030F0582F5051503618F05FE501C050E01E
:1017C000852F6CE00E94991DA82FB0E0E4EFFFEF99
:1017D000AE9FB001AF9F700DBE9F700D1124650FBD
:1017E000711D6C30710540F4FB01EE0FFF1FEA5DC7
:1017F000FE4F6081718102C060E070E0873081F04F
:10180000082E02C0660F771F0A94E2F7823028F094
:10181000CB0105966AE070E00CC0605070480BC0C8
:10182000CB01B6E0880F991FBA95E1F7029665E003
:1018300070E00E94A51D403108F04FE0CB01B901D6
:101840000E94150B0895A0E0B0E0E9E2FCE00C94E2
:101850000E1EB0901D0180915702882361F06091A7
:101860005802662341F08FEF70E040E00E94CD0BFC
:101870001092580234C1C0ECDDE5AA24A39414E010
:10188000712E00ED17E0B4E0EB2EF12CA4EFCA2E80
:10189000A1E0DA2EFFE08F2E912C0E94A30A209166
:1018A0005502309156022F5F3F4F309356022093DE
:1018B00055028636F1F18736CCF4823609F4AFC092
:1018C00083367CF48E3349F18F333CF4813209F452
:1018D00087C08C3309F09BC022C0813609F097C0C5
:1018E0009BC0843601F185360CF51BC08F3609F498
:1018F00047C0803744F48C3611F18D3661F187365C
:1019000009F085C019C0843709F444C0863709F44A
:1019100060C0823709F07BC039C0B394BECFBA949F
:10192000BCCFEE2435C0EE2482E07BC0EE2484E000
:1019300078C0EE2485E075C0EE2487E072C00E9476
:10194000C50ABC0190931F0180931E018091200164
:101950009091210137C00E94A30A8C3619F410928D
:10196000570204C0A092570210925802809155026B
:1019700090915602019690935602809355028DCF16
:101980000E94C50AB82E80931D0187CFEE24E394F0
:1019900080E047C00E94C50ABC01CE010E94A51D7F
:1019A000CB01880F991F53E0660F771F5A95E1F717
:1019B000860F971F909321018093200160911E0153
:1019C00070911F010E94A51D709323016093220155
:1019D00064CF0E94C50A90932501809324015DCFB6
:1019E00070921D011093210100932001F0921F01BC
:1019F000E0921E01D0922301C09222019092250113
:101A0000809224011092570244E0B42E46CF1092E7
:101A100056021092550263C0EE2489E002C0EE2403
:101A20008BE09CE0B99EB02C1124B80E0E94A30A52
:101A30008B3211F08332B9F48091550290915602A5
:101A400001969093560280935502B394EFCF809104
:101A5000550290915602019690935602809355023A
:101A6000BA940E94A30A8D3291F3C0912201D091C1
:101A700023018153883058F4C0912001D091210175
:101A80000E94C50ABC01CE010E94A51DEB018E017A
:101A90000BC0809155029091560201969093560288
:101AA00080935502C00FD11F169507950E94A30A77
:101AB0008E3279F380915702882339F0CE019695C2
:101AC000879580935802C81BD109EE2011F0BB24E2
:101AD000BA948B2DBE01409124010E94CD0BCDB74D
:101AE000DEB7EDE00C942A1E1F920F920FB60F92F4
:101AF00011242F933F934F935F936F937F938F9313
:101B00009F93AF93BF93EF93FF9380915B0290916C
:101B10005C029C012150304030935C0220935B02B8
:101B2000009711F510926F00789480918100887F62
:101B300081608093810080E197E290938900809397
:101B4000880010928B0010928A0081E080931C0123
:101B50008091550290915602009731F080915A027F
:101B6000882311F40E94230CFF91EF91BF91AF9154
:101B70009F918F917F916F915F914F913F912F91A5
:101B80000F900FBE0F901F9018950E94CD0B0895D7
:101B900080911C01882351F081E020915502309101
:101BA00056022115310519F480E0089581E0089569
:101BB0000E94C80D089510926F0090935602809372
:101BC000550210925902109258020E94230C089557
:101BD0000E94DB0D089510926F009093560280933F
:101BE000550281E080935902109258020E94230C02
:101BF00008950E94EB0D089510926F00E1E8F0E067
:101C00008081887F8160808380E197E29093890062
:101C10008093880010928B0010928A0081E080935C
:101C20001C01109256021092550208950E94FC0D5C
:101C3000089580911C01882341F080915502909174
:101C40005602009711F00E94230C81E0209155026A
:101C5000309156022115310509F480E008958093F2
:101C60005A02882311F40E94190E08950E942F0E23
:101C700008950E94190E089580E090E0089581E093
:101C800090E06F9364E06A95F1F76F910197C9F75F
:101C9000089508950F931F93CF93DF931AB1579828
:101CA0005A98289AC0E0D0E00E943F0E5C9A0E94A9
:101CB0003F0E09B15C980E943F0E5C9A0E943F0E55
:101CC0005C9807FF11C024969E0140E050E080918F
:101CD000610290916202A0916302B09164022817A0
:101CE00039074A075B0700F31AB9DF91CF911F91BB
:101CF0000F91089565B190E0AC0141705070440FB0
:101D0000551F9C012670307053E0220F331F5A95E7
:101D1000E1F7242B6D7C262B25B92BB188709070B0
:101D200034E0880F991F3A95E1F72F77282B2BB9CC
:101D30005C9A0E943F0E5C980E943F0E0895A2E0BC
:101D4000B0E0E5EAFEE00C94141E182F4A83698384
:101D50000E944A0F0E944A0EF4B005B1DAB0EBB00F
:101D6000289869814A81662311F05A9A01C05A98CD
:101D700084B1826384B9579A413029F0812F8295CA
:101D80008F700E947A0E812F8F700E947A0EDAB8BF
:101D9000EBB8F4B805B92296E7E00C94301E60E089
:101DA00042E00E949F0E089561E042E00E949F0E73
:101DB0000895EF92FF921F93DF93CF930F92CDB7C9
:101DC000DEB7660F660F660F482F592F7A0110E0B5
:101DD000812F860F806469830E94CF0EF701849162
:101DE0000E94D40E1F5F0894E11CF11C6981183019
:101DF00079F70F90CF91DF911F91FF90EF900895A9
:101E00000E94D90E08950E94D40E089560E041E02A
:101E10000E949F0E089580E197E2A0E0B0E08093D9
:101E2000610290936202A0936302B0936402529A9B
:101E3000209A549A8EE190E00E94721583E00E94ED
:101E4000060F86E090E00E94721583E00E94060F64
:101E500082E090E00E94721583E00E94060F82E00B
:101E600090E00E94721582E00E94060F82E090E0EE
:101E70000E94721588E20E94CF0E88E00E94CF0E69
:101E800081E00E94CF0E86E00E94CF0E8CE00E947F
:101E9000CF0E089580916502882329F481E0809314
:101EA00065020E940B0F089581E00E94CF0E809181
:101EB0005D0290915E02009711F1A0E0B0E208C0CF
:101EC000E0915D02F0915E02E20FF31FB083AF5F1D
:101ED0002A2F30E080913E0190E0019760913F0110
:101EE00070E0869FA001879F500D969F500D112492
:101EF000241735072CF31092600210925F020895A8
:101F00000E94540F08950E94D40E0895EF92FF92FC
:101F1000CF93DF93E82EE7017E01F92EE70102C09F
:101F20000E94D40E89918823D9F7DF91CF91FF9039
:101F3000EF9008950E94860F0895CF93DF93EC01F0
:101F400003C00E94D40E2196FE0184918823C9F714
:101F5000DF91CF9108950E949D0F08950E94860FF2
:101F60000895AAE0B0E0E7EBFFE00C94111E9B019E
:101F7000AC011AE0EAE0CE2ED12CE12CF12C5E016E
:101F80000894A11CB11C022FCA01B901A701960136
:101F90000E94CC1D1150F501E10FF11D005D922F43
:101FA000990F892F880F880F890F081B008321152F
:101FB00031054105510539F708C0F601E10FF11D62
:101FC00080810E94D40E1F5F04C06E010894C11C62
:101FD000D11C1A3090F32A96EAE00C942D1EEF9251
:101FE000FF920F931F937B018C0197FF0BC01095FD
:101FF0000095F094E094E11CF11C011D111D8DE28F
:102000000E94D40EC801B7010E94B10F1F910F9119
:10201000FF90EF9008950E94EF0F08950E94B10F76
:1020200008958A3010F4805D01C0895C0E94D40E4E
:1020300008951F93182F82958F700E941110812F81
:102040008F700E9411101F9108951F93182F892FD0
:102050000E941910812F0E9419101F9108950E944B
:10206000251008950E9419100895FF920F931F9351
:10207000F82E08E010E8812F8F2111F081E301C0D4
:1020800080E30E94D40E015011F01695F4CF1F91F9
:102090000F91FF9008950E9435100895A5E0B0E0DB
:1020A000E4E5F0E10C94181E182F80E8898380EC99
:1020B0008A8384E98B8384ED8C83FE01E60FF11D16
:1020C0008181810F6D830E94CF0E109360026D811C
:1020D00060935F022596E3E00C94341E0E944E103C
:1020E0000895A0E0B0E0E7E7F0E10C94131ED82ECD
:1020F00080915D0290915E02009709F4FAC02D2D47
:102100002A3009F443C02830C9F48091600281501C
:10211000809360028F3F51F480915F0281508093E1
:102120005F0280913F0181508093600280915F0245
:102130008F3F09F0D8C010925F02D3C08D2D0E944E
:10214000D40E80915F028823B9F090E0019740910E
:102150003F0150E0849F9001859F300D949F300D8A
:10216000112480916002E0915D02F0915E02E20F25
:10217000F31FE80FF11DD082809160028F5F809382
:10218000600290913F01891709F0B3C040915F024E
:10219000242F30E080913E0190E001972817390705
:1021A00009F09CC0C0E0D0E041C080E06C2F0E94EC
:1021B0004E10CC248E010F5F1F4F33C0EC2CFF2438
:1021C00030E0C29FC001C39F900DD29F900D11249B
:1021D000E0915D02F0915E02EE0DFF1DE80FF91F28
:1021E00080810E94D40E80915D0290915E022091C8
:1021F0003F0130E0C29FF001C39FF00DD29FF00D70
:1022000011248E0D9F1DE80FF91F029FD001039F1F
:10221000B00D129FB00D1124A80FB91F8C918083AF
:10222000C39420913F01C21648F2E80160913E013B
:10223000862F90E00297C817D9070CF4B6CF62300A
:10224000E0F1625080E00E944E1000E010E231C0E8
:10225000C02FD0E080913E0190E0029750E0849F33
:102260009001859F300D949F300D1124E0915D0207
:10227000F0915E02EC0FFD1FE20FF31F80810E94C0
:10228000D40E80913E0190E0029740913F0150E0D2
:10229000849F9001859F300D949F300D1124E09113
:1022A0005D02F0915E02EC0FFD1FE20FF31F108341
:1022B0000F5F40913F01041758F260913E01615059
:1022C00080E00E944E1010E004C080E20E94D40E14
:1022D0001F5F80913F011817C0F303C04F5F409309
:1022E0005F02109260028091600260915F020E9422
:1022F0004E102D2D332727FD3095C901CDB7DEB700
:10230000E8E00C942F1E813011F48FE001C08EE0C4
:102310000E94CF0E08950E94831108958CE00E94C0
:10232000CF0E08950E948E1108950F931F93182FBA
:10233000062F08C0112311F480E101C084E10E943E
:10234000CF0E01500023B1F71F910F9108950E9405
:10235000951108950F931F93CF93DF93182F062F96
:10236000EA010BC0112311F488E101C08CE10E9445
:10237000CF0ECE010E9472150150002399F7DF9114
:10238000CF911F910F9108950E94AA1108958091F5
:102390005D0290915E02009711F00E94E01E209174
:1023A0003E0130E02150304080913F0190E0AC018F
:1023B000249FC001259F900D349F900D11240E94F1
:1023C000461E90935E0280935D02009721F1A0E08B
:1023D000B0E208C0E0915D02F0915E02E20FF31FEF
:1023E000B083AF5F2A2F30E080913E0190E00197EB
:1023F00060913F0170E0869FA001879F500D969FDE
:10240000500D1124241735072CF381E790E16CE37C
:102410007EE00E94791F08950E94C711089580935D
:102420003F0160933E010E94C711089580933F01D0
:1024300060933E010E94C7110895FC011182108231
:1024400013821282158214821682683068F489E23F
:1024500090E0918380838BE290E0938382838AE291
:1024600090E09583848311C06E30C0F483E290E0E5
:102470009183808385E290E09383828384E290E07D
:102480009583848370E06850704081E090E002C0E2
:10249000880F991F6A95E2F7868308956531B8F42D
:1024A00086E290E09183808388E290E09383828348
:1024B00087E290E09583848370E06E50704081E005
:1024C00090E002C0880F991F6A95E2F7868308950D
:1024D000FC01A481B5818681662321F09C91982B13
:1024E0009C9308959C91809589238C930895FC0179
:1024F0006F3F31F4A281B3818C91968189270CC002
:10250000A281B3818681662321F09C91982B9C93B4
:1025100008959C91809589238C930895A7E0B0E05D
:10252000E4E9F2E10C94161E282FF62E8E010F5FBF
:102530001F4FC801622F0E941D12C8016F2D0E94FB
:102540007712C80161E00E9468122796E5E00C94BA
:10255000321E0895E0EBF0E083EF8083808184BD3C
:10256000E1EBF0E082E08083808185BDE4EBF0E088
:1025700010828081E3EBF0E08083808188BD88B5A4
:1025800087BD86E060E00E948E1285E060E00E94D8
:102590008E128BE060E00E948E1283E060E00E9469
:1025A0008E12089580916602882329F481E0809339
:1025B00066020E94AA120895CF93DF93EC010E9455
:1025C000D212D7FF05C0D095C195DF4F81E001C081
:1025D00080E0CF3FD10519F014F0CFEFD0E0882391
:1025E00019F018BCC7BD02C0C8BD17BCDF91CF91A0
:1025F00008950E94DC120895CF93DF93EC010E94AE
:10260000D212D7FF05C0D095C195DF4F81E001C040
:1026100080E0CF3FD10519F014F0CFEFD0E0882350
:1026200029F01092B400C093B30004C0C093B4006A
:102630001092B300DF91CF9108950E94FC1208958B
:10264000CF93DF93EB010E94DC12CE010E94FC12BB
:10265000DF91CF9108950E9420130895089584B1C9
:102660008D7C84B985B1826385B985E090E06F93F4
:1026700064E06A95F1F76F910197C9F70895809129
:102680006702882329F481E0809367020E942F1358
:1026900008951F93CF93DF93182F0E943F13C12FEC
:1026A000D0E023B130E0209530952C233D23211537
:1026B0003105B9F38AE090E00E94721523B130E051
:1026C000209530952C233D232115310551F383B1FD
:1026D00080958123DF91CF911F9108950E94491326
:1026E00008951F93182F0E943F1383B18123E9F3AC
:1026F0008AE090E00E94721583B18123B1F383B127
:1027000081231F9108950E94711308951F930E94C1
:102710004913182F0E947113812F1F9108950E9451
:1027200086130895A1E0B0E0E8E9F3E10C94191EE6
:1027300089830E943F1393B19095898189232196C3
:10274000E2E00C94351E0E9492130895BF92CF923E
:10275000DF92EF92FF920F931F93B82EC3B0DC2C41
:10276000D0940E94AC157B018C010E943F13809194
:102770007302813021F1813038F0823009F445C094
:10278000833009F081C063C02B2D30E04D2D50E027
:1027900040955095242335232115310509F474C043
:1027A000CB20C0926E02E0926F02F0927002009312
:1027B00071021093720281E08093730265C0809170
:1027C0006F0290917002A0917102B0917202E81AAA
:1027D000F90A0A0B1B0B8FE0E816F104010511053D
:1027E00008F452C040916E028D2D90E08095909536
:1027F000242F30E082239323009731F182E08093ED
:102800007302C422C0926E023FC040916E028D2DB1
:10281000842371F093E09093730280936E02E092B0
:102820006F02F092700200937102109372022CC03A
:1028300050E08B2D90E02D2D30E0209530958223B7
:1028400093234817590701F1109273021DC080911C
:102850006F0290917002A0917102B0917202E81A19
:10286000F90A0A0B1B0B8FE0E816F10401051105AC
:1028700058F080916E028D2119F01092730205C0FC
:1028800092E09093730201C080E01F910F91FF903E
:10289000EF90DF90CF90BF9008950E94A613089507
:1028A000CF92DF92EF92FF920F931F93C82ED3B077
:1028B0000E94AC157B018C010E943F1380916D0238
:1028C000813029F1813038F0823009F447C08330FB
:1028D00009F083C065C02C2D30E04D2D50E04095AF
:1028E0005095242335232115310509F476C0D09461
:1028F000DC20D0926802E0926902F0926A020093B2
:102900006B0210936C0281E080936D0266C080912F
:10291000690290916A02A0916B02B0916C02E81A70
:10292000F90A0A0B1B0B8FE0E816F10401051105EB
:1029300008F453C0409168028D2D90E080959095E9
:10294000242F30E082239323009739F182E0809393
:102950006D02D094D422D09268023FC040916802A8
:10296000842F8D2171F093E090936D028093680223
:10297000E0926902F0926A0200936B0210936C027B
:102980002CC050E08C2D90E02D2D30E0209530951E
:10299000822393234817590701F110926D021DC03D
:1029A0008091690290916A02A0916B02B0916C02D1
:1029B000E81AF90A0A0B1B0B8FE0E816F10401056F
:1029C000110558F0809168028D2119F010926D0266
:1029D00005C092E090936D0201C080E01F910F91BD
:1029E000FF90EF90DF90CF9008950E9450140895CB
:1029F0006F9364E06A95F1F76F910197C9F70895B5
:102A00002F928F939F932FB68091750290917602AB
:102A10000196809375029093760290E08091770200
:102A2000891F8093770290917D029C5F90937D0235
:102A300080917C0280519742C0F090937D028093F8
:102A40007C028091780290917902019680937802BD
:102A50009093790290E080917A02891F80937A02A4
:102A600080917B02891F80937B022FBE9F918F9163
:102A70002F9018950F931F936F5F7F4F8F4F9F4F2E
:102A8000660F771F881F991F25E030E040E050E077
:102A90000E94CC1DB901CA011F910F9108950F9397
:102AA0001F936F5F7F4F8F4F9F4F660F771F881F5A
:102AB000991F25E030E040E050E00E94CC1DB901B4
:102AC000CA011F910F910895CF93DF93EC0105C0C8
:102AD00088EE93E00E94F81421972097C9F7DF91C0
:102AE000CF9108950E9464150895E0E7F0E0808199
:102AF0008E7F8083A0EBB0E08C9183608C93A1EB00
:102B0000B0E08C91807F8C938C9182608C93B89A8A
:102B10008081816080837894089580917E028823EB
:102B200029F481E080937E020E94751508950E9429
:102B30008D15E0E7F0E080818E7F80832091780220
:102B40003091790240917A0250917B0280818160BC
:102B50008083B901CA0108950E94971508950E94C3
:102B60008D15809170008E7F809370002091B2004F
:102B70008091740290917502A0917602B0917702D3
:102B8000B89904C030E040E050E011C08091B2003C
:102B90002091740230917502409176025091770233
:102BA00020503F4F4F4F5F4F90E0A0E0B0E0282B08
:102BB000392B4A2B5B2B80917000816080937000D1
:102BC000B901CA0108950E94AF1508950E948D159C
:102BD000E0E7F0E080818E7F80831092780210928F
:102BE000790210927A0210927B0210927D0210926A
:102BF0007C0280818160808308950E94E61508959B
:102C00009C01462F8FE792E0B9010E94411A089576
:102C10008FE792E00E947D1708958FE792E00E946F
:102C200061170895682F8FE792E00E94261D08958E
:102C30008FE792E00E94981708959C01462F8FE736
:102C400092E0B9010E94A01A08959C01462F8FE7D7
:102C500092E0B90120E00E94641B08959C01462F78
:102C60008FE792E0B90121E00E94641B08958091F2
:102C70007F0290918002089580918102909182025A
:102C80000895809183029091840208958091850235
:102C90009091860208950F93DF93CF9300D000D0D8
:102CA0000F92CDB7DEB79C01962FDE011196E0E4BE
:102CB000F1E085E001900D928150E1F7BE016F5F78
:102CC0007F4F992329F08FE792E045E00FEF04C092
:102CD0008FE792E045E003E10E94DF178FE792E083
:102CE0000E9461170E94E6150F900F900F900F90B1
:102CF0000F90CF91DF910F91089561E00E944B16E4
:102D0000089560E00E944B1608959C01462F8FE7BE
:102D100092E0B9010E94411A08958FE792E00E9463
:102D20007D1708958FE792E00E94611708958FE75D
:102D300092E00E94261D08958FE792E00E94981766
:102D400008958FE792E00E94A01A08958FE792E01D
:102D50000E94641B089580917F02909180020895E3
:102D600080918102909182020895809183029091D6
:102D700084020895809185029091860208950895B5
:102D80008FE792E00E945C1D08956F9364E06A955E
:102D9000F1F76F910197C9F70895FC011182108234
:102DA00013821282158214821682683068F489E2D6
:102DB00090E0918380838BE290E0938382838AE228
:102DC00090E09583848311C06E30C0F483E290E07C
:102DD0009183808385E290E09383828384E290E014
:102DE0009583848370E06850704081E090E002C079
:102DF000880F991F6A95E2F7868308956531B8F4C4
:102E000086E290E09183808388E290E093838283DE
:102E100087E290E09583848370E06E50704081E09B
:102E200090E002C0880F991F6A95E2F786830895A3
:102E3000E091C502F091C602808191810895E091F0
:102E4000C502F091C602828193810895E091C50286
:102E5000F091C602848195810895E091C502F091B8
:102E6000C602868197810895A7E0B0E0EAE3F7E122
:102E70000C94171E8C01FC011182108213821282A5
:102E80001582148217821682613118F080E18087E2
:102E900002C0FC016087F801208BCE010196642FEF
:102EA0000E941D128F81F80181878B819C819387FD
:102EB00082878D819E81958784872796E4E00C9494
:102EC000331EFC01A485B585109779F08C9191850E
:102ED000892B8C93A285B3859C91818580958923CC
:102EE0008C9388EC90E00E94C51608958091C502ED
:102EF0009091C6020E9461170895FC01A485B585D2
:102F0000109771F08C919185892B8C93A285B38554
:102F10008C919185892B8C9388EC90E00E94C5164A
:102F200008958091C5029091C6020E947D17089570
:102F3000FC0120E039C080819181009759F0A22FD7
:102F4000B0E0AA0FBB1FA80FB91F86859785119601
:102F50009C938E9384819581009759F0A22FB0E0C5
:102F6000AA0FBB1FA80FB91F8685978511969C9342
:102F70008E9382819381009749F0A22FB0E0AA0F2F
:102F8000BB1FA80FB91F11961C921E9286819781B4
:102F9000009749F0A22FB0E0AA0FBB1FA80FB91FDE
:102FA00011961C921E922F5F8085281720F208959B
:102FB0008091C5029091C6020E9498170895A7E0DB
:102FC000B0E0E5EEF7E10C94091E7C011B01642FD3
:102FD0003901402F20E00E94341797012F5B3F4FAB
:102FE000F9011082D701AE5BBF4F1C92C7018D5B08
:102FF0009F4FFC011082F7017786668666242E01BA
:103000000894411C511C6C015D01490129C0062D29
:1030100010E0F101E00FF11FC20160810E941D125A
:103020002F81F701E00FF11F218B89819A81F8012F
:10303000EE0FFF1FEE0DFF1D92A381A383329105BA
:1030400011F4F40109C08632910511F4F50104C0B0
:103050008932910521F4F6018081822B808363946B
:10306000F7018085681698F22796E2E10C94251EF8
:103070000F930E94DF170F910895A0E0B0E0E3E402
:10308000F8E10C94111E7C01162F6A01022F84E4D2
:1030900090E00E94461EA82EE5015E01B92EE501D2
:1030A000209761F0C501B701412F96010E94DF17FB
:1030B000B092C602A092C50281E001C080E0CDB707
:1030C000DEB7EAE00C942D1EA0E0B0E0EAE6F8E1FD
:1030D0000C940E1EEC015B01FC01EF5BFF4F908036
:1030E000FC01EE5BFF4F8080FC01ED5BFF4F7080C9
:1030F00080E009C0E82FF0E0EE0FFF1FEA0DFB1D96
:10310000118210828F5F98858917A0F384B121E422
:10311000E22EF12CEC0EFD1ED7019C91892B84B977
:1031200087B18E010E5B1F4FF8019081892B87B903
:103130008AB193E4C92ED12CCC0EDD1ED6019C9110
:10314000892B8AB985B1F7019081892B85B988B11E
:10315000D8019C91892B88B98BB1F6019081892B7C
:103160008BB98AE090E00E94C51694B1D7018C918A
:103170008095892384B997B1F8018081809589234E
:1031800087B99AB1D6018C91809589238AB995B176
:10319000F70180818095892385B998B1D8018C91F8
:1031A0008095892388B99BB1F60180818095892318
:1031B0008BB9C090B000E090B1008091B000836006
:1031C0008093B00082E08093B1000091B20080E073
:1031D00090E039C02091B200201B820F911D020F98
:1031E000F3B0F91409F04DC096B0981409F049C035
:1031F00029B1271509F045C024C0212F30E0A901CD
:10320000440F551FF501E40FF51F608171816115B1
:10321000710599F44C0F5D1FDA0191964D915C9107
:103220009297DA014C912C0F3D1FD90151962C91A8
:103230005197422311F4918380831F5F28851217D1
:10324000E0F2892C9F2C2E853F858217930710F280
:10325000C092B000E092B10020E00FC0E22FF0E099
:10326000EE0FFF1FEA0DFB1D80819181009721F475
:103270008E859F85918380832F5F8885281770F3C3
:1032800005C0F3B096B079B010E0D8CFCDB7DEB7B7
:10329000EDE00C942A1EA1E0B0E0E1E5F9E10C9428
:1032A000131E6C01162F642FF22E402F21E079831C
:1032B0000E943417F601F1A212A2D601519679812B
:1032C000E12FF72F7F01F601808590E041968C0D6C
:1032D0009D1D21E030E010C0B701F70141917F0151
:1032E0004D93A901FB01008002C0440F551F0A94B1
:1032F000E2F7412BF60142A3F60112A1A817B90784
:1033000059F71F7312A38FEF93E097878687219653
:10331000E8E00C942F1E0F930E944B190F91089513
:10332000AF92BF92DF92EF92FF920F931F93CF93D2
:10333000DF937C01D62E142F022F83E290E00E94AF
:10334000461EA82EE5015E01B92EE501209761F029
:10335000C501B7014D2D212F0E944B19B092C60215
:10336000A092C50281E001C080E0DF91CF911F9162
:103370000F91FF90EF90DF90BF90AF900895EF9284
:10338000FF920F931F93CF93DF93FC019B0100915A
:103390007C0010917A00E7B0F8B080917A0086FD49
:1033A000FCCF80E00AC0A82FB0E0AA0FBB1FA20F7D
:1033B000B31F11961C921E928F5F9085891798F308
:1033C00097B182A18095892387B998B182A1809510
:1033D000892388B987E880937A0070E029C0DF01EB
:1033E000A60FB11D51968C915197806480937C00FB
:1033F00080917A00806480937A0080917A0086FDC3
:10340000FCCFA62FB0E0AA0FBB1FA20FB31F4091A5
:103410007800509179008D919C911197840F951FA0
:1034200011969C938E936F5F80856817C0F27F5FC3
:1034300081A1781710F460E0F7CF40E014C0C42FEA
:10344000D0E0CC0FDD1FC20FD31F61A170E0CB0114
:1034500095958795A881B9818A0F9B1F0E94A51D0C
:10346000798368834F5F8085481748F300937C0019
:1034700010937A00F8B8E7B8CDB7DEB7E6E00C9461
:10348000311EA0E2B0E0E7E4FAE10C94141E8C01D6
:103490007B01D42E842F8150823018F4C8010E9401
:1034A0007D17D80150968C915097882389F4C801D4
:1034B000B7010E946418C8010E946117BD2DB23087
:1034C000D9F5C801BE016F5F7F4F0E94641810C01C
:1034D000C801B7010E94BF19C8010E946117ED2DF4
:1034E000E23051F5C801BE016F5F7F4F0E94BF19E6
:1034F00060E0AE014F5F5F4F1BC0862F90E0880FEA
:10350000991FF701E80FF91F840F951FD8011E9628
:103510002D913C911F97DC018D919C911197281B57
:10352000390B80819181820F931F918380836F5F1C
:10353000F8018085681708F3A096E7E00C94301E28
:103540008F929F92AF92BF92CF92DF92FF920F9392
:103550001F93CF93DF93EC01C62E072FF42E42303A
:1035600011F0FF2051F48C819D81009709F4A0C0D7
:103570008E819F81009709F49BC08F2D81508230EE
:1035800050F488819981009709F492C08A819B81C7
:10359000009709F48DC0CE016C2D702F4F2D0E9425
:1035A000411AAC2CB02E00E010E0882499247AC097
:1035B0008F2D813059F4EA81FB81E00FF11FC0802B
:1035C000D180E881F981E00FF11F0DC08C819D81D0
:1035D000FF2061F4EE81FF81E00FF11FC080D180F8
:1035E000800F911FFC01408151812BC0800F911FE2
:1035F000FC0180819181E881F981E00FF11F408118
:103600005181CE84DF848417950710F4A60104C08D
:103610004C0D5D1D481B590BEE81FF81E00FF11F22
:1036200080819181EA81FB81E00FF11F208131814E
:10363000CE84DF848217930720F0C20ED31EC81AEF
:10364000D90AC41AD50AD1F0F5016081718180E0F0
:1036500090E09A0140E050E0621B730B840B950BE5
:1036600028EE33E040E050E00E947A1D960140E0F1
:1036700050E00E94EE1D37FD0AC002C020E030E09D
:10368000F3E0293E3F072CF028EE33E002C020E0B3
:1036900030E0F501219331935F010894811C911C66
:1036A0000E5F1F4F888590E0881699060CF480CF36
:1036B000DF91CF911F910F91FF90DF90CF90BF903E
:1036C000AF909F908F900895A5E0B0E0EAE6FBE10F
:1036D0000C94091E4C01C62EE72E2D830E94A01AC1
:1036E000D40118964C901897DE2C642D70E080E081
:1036F00090E028EE33E040E050E00E947A1D6983BC
:103700007A838B839C83EE24FF24870166247724AD
:10371000882499245401552436C0F6013081218132
:1037200042E0242E312CC20CD31CC901492F582F42
:103730001A012D81222329F088EE93E08219930942
:103740001C0199EC291631042CF4A3E32A16310448
:1037500094F002C055245394B101882777FD8095D9
:10376000982FA80197010E947A1D860E971EA81E09
:10377000B91E620C731C88EE93E0A0E0B0E0E80E86
:10378000F91E0A1F1B1F89819A81AB81BC81E81633
:10379000F9060A071B0709F65520F1F45524089489
:1037A0004108510824EF31E0429EC001439E900D34
:1037B000529E900D11242091C3023091C40228170B
:1037C0003907B4F088EE93E0489E9001499E300D91
:1037D000589E300D11240EC0930140E050E0C50109
:1037E000B4010E94CC1D2093C3023093C40202C0D6
:1037F00020E030E0C9012596E2E10C94251E9C01F1
:10380000462F8091C5029091C602B90121E00E9425
:10381000641B08959C01462F8091C5029091C602B9
:10382000B90120E00E94641B08959C01462F8091FD
:10383000C5029091C602B9010E94A01A0895A7E698
:10384000B0E0E5E2FCE10C94091E8C014B016A0139
:10385000A6962FAFA697DA018D919C9111970097AC
:10386000E9F4F801808590E0880F991F0E94461EB8
:10387000D60111969C938E93009709F4E2C0FC0147
:1038800080E090E003C0119211920196D801189641
:103890002C91189730E082179307ACF3F4018081E4
:1038A0009181009789F0EE24FF245E010894A11C09
:1038B000B11CB1E46B2E712C6C0E7D1EA1E24A2E60
:1038C000512C4C0E5D1E23C0D80118968C9190E0AF
:1038D000880F991F0E94461EF401918380830097F0
:1038E00009F4AFC0FC0180E090E0D80107C01E964B
:1038F0002D913C911F9721933193019618962C910D
:10390000189730E08217930794F38D01CCCFC8014C
:10391000B501A6964FADA6970E94411AD8011896F8
:103920008C911897E82FF0E0A596FFAFEEAFA59722
:103930001301F501A3965FAE4EAEA397930140E04D
:1039400050E0A8965FAE4EAEA89737C0E114F104E0
:1039500061F0A896AEADBFADA8976D917C9111971F
:10396000808191816817790760F480819181A896A0
:10397000AEADBFADA89711969C938E93E114F10460
:1039800049F0D9016D917C911197808191818617C1
:10399000970728F480819181D9018D939C934F5F83
:1039A0005F4F2E5F3F4F3296A8968EAD9FADA89782
:1039B0000296A8969FAF8EAFA897A596AEADBFAD65
:1039C000A5974A175B0714F20894E11CF11CBAE0B2
:1039D000EB16F10409F09BCF80E090E02CC0F101E0
:1039E000419151911F01BC01660F771FD601ED91E6
:1039F000FC911197E60FF71F2081318124173507BD
:103A000010F451834083A396EEADFFADA39741918F
:103A10005191A396FFAFEEAFA397D401ED91FC9126
:103A20001197E60FF71F208131814217530710F4D9
:103A3000518340830196F801208530E08217930777
:103A400074F2C959DF4FE2E10C94251E1F93CF9306
:103A5000DF93EC01162F862F8150823058F4AE018F
:103A60004E5F5F4FCE01BE0121E00E941F1C12304D
:103A700019F00CC0662351F4BE016C5F7F4FAE019C
:103A80004A5F5F4FCE0120E00E941F1CDF91CF9163
:103A90001F910895682F8091C5029091C6020E94DF
:103AA000261D08959C01462F8091C5029091C60263
:103AB000B9010E94411A0895CF93DF93EC018A81E6
:103AC0009B81009711F00E94E01E8E819F810097DC
:103AD00011F00E94E01E88819981009711F00E94E8
:103AE000E01E8C819D81009711F00E94E01EDF9105
:103AF000CF910895629FD001739FF001829FE00DE6
:103B0000F11D649FE00DF11D929FF00D839FF00D5C
:103B1000749FF00D659FF00D9927729FB00DE11D08
:103B2000F91F639FB00DE11DF91FBD01CF011124E5
:103B30000895991B79E004C0991F961708F0961B09
:103B4000881F7A95C9F780950895AA1BBB1B51E180
:103B500007C0AA1FBB1FA617B70710F0A61BB70BFD
:103B6000881F991F5A95A9F780959095BC01CD01A2
:103B7000089597FB092E07260AD077FD04D0E5DFCC
:103B800006D000201AF4709561957F4F0895F6F7DE
:103B9000909581959F4F0895A1E21A2EAA1BBB1BF9
:103BA000FD010DC0AA1FBB1FEE1FFF1FA217B30709
:103BB000E407F50720F0A21BB30BE40BF50B661F1F
:103BC000771F881F991F1A9469F7609570958095E3
:103BD00090959B01AC01BD01CF01089597FB092E83
:103BE00005260ED057FD04D0D7DF0AD0001C38F4CC
:103BF00050954095309521953F4F4F4F5F4F089519
:103C0000F6F790958095709561957F4F8F4F9F4FF8
:103C100008952F923F924F925F926F927F928F9270
:103C20009F92AF92BF92CF92DF92EF92FF920F934B
:103C30001F93CF93DF93CDB7DEB7CA1BDB0B0FB655
:103C4000F894DEBF0FBECDBF09942A883988488812
:103C50005F846E847D848C849B84AA84B984C884A8
:103C6000DF80EE80FD800C811B81AA81B981CE0F9F
:103C7000D11D0FB6F894DEBF0FBECDBFED01089584
:103C8000EE0FFF1F0590F491E02D0994CF93DF9381
:103C90008230910510F482E090E0E091C902F09149
:103CA000CA0240E050E020E030E026C0608171812F
:103CB00068177907E0F06817790781F482819381AA
:103CC0002115310531F0D90113969C938E931297EB
:103CD0002BC09093CA028093C90226C0411551059A
:103CE00019F06417750718F4AB01E901DF019F01B2
:103CF00072816381E72FF62F3097C1F64115510588
:103D000001F1481B590B4430510580F412968D91F6
:103D10009C911397209719F09B838A8304C09093FA
:103D2000CA028093C902FD01329646C0FD01E40F2C
:103D3000F51F819391934250504011965C934E939E
:103D40003BC02091C7023091C8022115310541F4D2
:103D500020914F02309150023093C8022093C70245
:103D600020915102309152022115310541F42DB7B5
:103D70003EB740914D0250914E02241B350BE0910D
:103D8000C702F091C802E217F307A0F42E1B3F0B05
:103D90002817390778F0AC014E5F5F4F24173507BD
:103DA00048F04E0F5F1F5093C8024093C7028193A3
:103DB000919302C0E0E0F0E0CF01DF91CF91089550
:103DC000CF93DF93009709F491C0FC0132971382DF
:103DD00012826091C9027091CA026115710581F465
:103DE00020813181280F391F8091C7029091C8022C
:103DF0008217930799F5F093C802E093C70276C043
:103E0000DB0180E090E002C0CD01D901AE17BF0711
:103E100048F412962D913C91139721153105A1F785
:103E2000CD0121C0B383A283EF01499159919E0135
:103E3000240F351FA217B30779F42D913C911197E8
:103E4000240F351F2E5F3F4F3183208312962D9113
:103E50003C91139733832283009729F4F093CA028D
:103E6000E093C90243C0DC011396FC93EE931297D2
:103E70004D915D91A40FB51FEA17FB0769F42081EE
:103E80003181240F351F2E5F3F4FEC01398328838A
:103E9000228133813B832A83E0E0F0E002C0FB0112
:103EA000BC01DB0112968D919C9113970097B9F795
:103EB0009B012E5F3F4F8D919C911197820F931F15
:103EC0004091C7025091C8024817590779F43097BA
:103ED00029F41092CA021092C90202C013821282FF
:103EE000225030403093C8022093C702DF91CF9117
:103EF00008950F931F93CF93DF938C01EB010097ED
:103F000011F42097C9F181E090E06EE070E00E942A
:103F1000C41FFC019C01009789F180E883832097EE
:103F200071F0D387C28781E883838091CB0290911F
:103F3000CC02009721F4F093CC02E093CB02011560
:103F40001105E1F01187008783818260838380916E
:103F5000CD029091CE02009789F4F093CE02E093C7
:103F6000CD028091CF029091D002009739F4F09366
:103F7000D002E093CF0202C020E030E0C901DF911F
:103F8000CF911F910F910895EF92FF920F931F937E
:103F9000CF93DF93689F8001699F100D789F100D6C
:103FA0001124C8010E94461EE82EE7017E01F92E69
:103FB000E701209731F08E2D60E070E0A8010E94AB
:103FC000E81F7E01CE01CDB7DEB7E6E00C94311ECE
:103FD000DC0101C06D9341505040E0F7089510E0BE
:103FE000C0EBD0E004C0FE010E94421E2296C23BFC
:083FF000D107C9F7F894FFCFD7
:103FF8006D56005072657373204200476F210001AF
:10400800200000010203040506FF881301040400D0
:10401800D007F4010F009C01B501CF01EA010702A6
:104028002602470269028E02B502DE020A0302086E
:104038000E0F101112000000000000000000010225
:10404800020303030304040404040404040505052B
:104058000505050505050505050505050506060605
:1040680006060606060606060606060606060606E8
:1040780006060606060606060606060606070707D5
:1040880007070707070707070707070707070707B8
:1040980007070707070707070707070707070707A8
:1040A8000707070707070707070707070707070798
:1040B8000707070707070707070707070708080885
:1040C8000808080808080808080808080808080868
:1040D8000808080808080808080808080808080858
:1040E8000808080808080808080808080808080848
:1040F8000808080808080808080808080808080838
:104108000808080808080808080808080808080827
:104118000808080808080808080808080808080817
:104128000808080808080808080808080808080807
:10413800080808080808080808080808082000D11E
:044148000200000071
:00000001FF
